{
  "fileName": "KittyCore.sol",
  "contractName": "KittyBreeding",
  "source": "/*\n* copied from: \nhttps://etherscan.io/address/0x06012c8cf97bead5deae237070f9587f8e7a266d#code\n*/\n\n/**\n *Submitted for verification at Etherscan.io on 2017-11-28\n */\n\npragma solidity ^0.4.11;\n\n/**\n * @title Ownable\n * @dev The Ownable contract has an owner address, and provides basic authorization control\n * functions, this simplifies the implementation of \"user permissions\".\n */\ncontract Ownable {\n    address public owner;\n\n    /**\n     * @dev The Ownable constructor sets the original `owner` of the contract to the sender\n     * account.\n     */\n    function Ownable() {\n        owner = msg.sender;\n    }\n\n    /**\n     * @dev Throws if called by any account other than the owner.\n     */\n    modifier onlyOwner() {\n        require(msg.sender == owner);\n        _;\n    }\n\n    /**\n     * @dev Allows the current owner to transfer control of the contract to a newOwner.\n     * @param newOwner The address to transfer ownership to.\n     */\n    function transferOwnership(address newOwner) onlyOwner {\n        if (newOwner != address(0)) {\n            owner = newOwner;\n        }\n    }\n}\n\n/// @title Interface for contracts conforming to ERC-721: Non-Fungible Tokens\n/// @author Dieter Shirley <dete@axiomzen.co> (https://github.com/dete)\ncontract ERC721 {\n    // Required methods\n    function totalSupply() public view returns (uint256 total);\n\n    function balanceOf(address _owner) public view returns (uint256 balance);\n\n    function ownerOf(uint256 _tokenId) external view returns (address owner);\n\n    function approve(address _to, uint256 _tokenId) external;\n\n    function transfer(address _to, uint256 _tokenId) external;\n\n    function transferFrom(\n        address _from,\n        address _to,\n        uint256 _tokenId\n    ) external;\n\n    // Events\n    event Transfer(address from, address to, uint256 tokenId);\n    event Approval(address owner, address approved, uint256 tokenId);\n\n    // Optional\n    // function name() public view returns (string name);\n    // function symbol() public view returns (string symbol);\n    // function tokensOfOwner(address _owner) external view returns (uint256[] tokenIds);\n    // function tokenMetadata(uint256 _tokenId, string _preferredTransport) public view returns (string infoUrl);\n\n    // ERC-165 Compatibility (https://github.com/ethereum/EIPs/issues/165)\n    function supportsInterface(bytes4 _interfaceID)\n        external\n        view\n        returns (bool);\n}\n\n// // Auction wrapper functions\n\n// Auction wrapper functions\n\n/// @title SEKRETOOOO\ncontract GeneScienceInterface {\n    /// @dev simply a boolean to indicate this is the contract we expect to be\n    function isGeneScience() public pure returns (bool);\n\n    /// @dev given genes of kitten 1 & 2, return a genetic combination - may have a random factor\n    /// @param genes1 genes of mom\n    /// @param genes2 genes of sire\n    /// @return the genes that are supposed to be passed down the child\n    function mixGenes(\n        uint256 genes1,\n        uint256 genes2,\n        uint256 targetBlock\n    ) public returns (uint256);\n}\n\n/// @title A facet of KittyCore that manages special access privileges.\n/// @author Axiom Zen (https://www.axiomzen.co)\n/// @dev See the KittyCore contract documentation to understand how the various contract facets are arranged.\ncontract KittyAccessControl {\n    // This facet controls access control for CryptoKitties. There are four roles managed here:\n    //\n    //     - The CEO: The CEO can reassign other roles and change the addresses of our dependent smart\n    //         contracts. It is also the only role that can unpause the smart contract. It is initially\n    //         set to the address that created the smart contract in the KittyCore constructor.\n    //\n    //     - The CFO: The CFO can withdraw funds from KittyCore and its auction contracts.\n    //\n    //     - The COO: The COO can release gen0 kitties to auction, and mint promo cats.\n    //\n    // It should be noted that these roles are distinct without overlap in their access abilities, the\n    // abilities listed for each role above are exhaustive. In particular, while the CEO can assign any\n    // address to any role, the CEO address itself doesn't have the ability to act in those roles. This\n    // restriction is intentional so that we aren't tempted to use the CEO address frequently out of\n    // convenience. The less we use an address, the less likely it is that we somehow compromise the\n    // account.\n\n    /// @dev Emited when contract is upgraded - See README.md for updgrade plan\n    event ContractUpgrade(address newContract);\n\n    // The addresses of the accounts (or contracts) that can execute actions within each roles.\n    address public ceoAddress;\n    address public cfoAddress;\n    address public cooAddress;\n\n    // @dev Keeps track whether the contract is paused. When that is true, most actions are blocked\n    bool public paused = false;\n\n    /// @dev Access modifier for CEO-only functionality\n    modifier onlyCEO() {\n        require(msg.sender == ceoAddress);\n        _;\n    }\n\n    /// @dev Access modifier for CFO-only functionality\n    modifier onlyCFO() {\n        require(msg.sender == cfoAddress);\n        _;\n    }\n\n    /// @dev Access modifier for COO-only functionality\n    modifier onlyCOO() {\n        require(msg.sender == cooAddress);\n        _;\n    }\n\n    modifier onlyCLevel() {\n        require(\n            msg.sender == cooAddress ||\n                msg.sender == ceoAddress ||\n                msg.sender == cfoAddress\n        );\n        _;\n    }\n\n    /// @dev Assigns a new address to act as the CEO. Only available to the current CEO.\n    /// @param _newCEO The address of the new CEO\n    function setCEO(address _newCEO) external onlyCEO {\n        require(_newCEO != address(0));\n\n        ceoAddress = _newCEO;\n    }\n\n    /// @dev Assigns a new address to act as the CFO. Only available to the current CEO.\n    /// @param _newCFO The address of the new CFO\n    function setCFO(address _newCFO) external onlyCEO {\n        require(_newCFO != address(0));\n\n        cfoAddress = _newCFO;\n    }\n\n    /// @dev Assigns a new address to act as the COO. Only available to the current CEO.\n    /// @param _newCOO The address of the new COO\n    function setCOO(address _newCOO) external onlyCEO {\n        require(_newCOO != address(0));\n\n        cooAddress = _newCOO;\n    }\n\n    /*** Pausable functionality adapted from OpenZeppelin ***/\n\n    /// @dev Modifier to allow actions only when the contract IS NOT paused\n    modifier whenNotPaused() {\n        require(!paused);\n        _;\n    }\n\n    /// @dev Modifier to allow actions only when the contract IS paused\n    modifier whenPaused {\n        require(paused);\n        _;\n    }\n\n    /// @dev Called by any \"C-level\" role to pause the contract. Used only when\n    ///  a bug or exploit is detected and we need to limit damage.\n    function pause() external onlyCLevel whenNotPaused {\n        paused = true;\n    }\n\n    /// @dev Unpauses the smart contract. Can only be called by the CEO, since\n    ///  one reason we may pause the contract is when CFO or COO accounts are\n    ///  compromised.\n    /// @notice This is public rather than external so it can be called by\n    ///  derived contracts.\n    function unpause() public onlyCEO whenPaused {\n        // can't unpause if contract was upgraded\n        paused = false;\n    }\n}\n\n/// @title Base contract for CryptoKitties. Holds all common structs, events and base variables.\n/// @author Axiom Zen (https://www.axiomzen.co)\n/// @dev See the KittyCore contract documentation to understand how the various contract facets are arranged.\ncontract KittyBase is KittyAccessControl {\n    /*** EVENTS ***/\n\n    /// @dev The Birth event is fired whenever a new kitten comes into existence. This obviously\n    ///  includes any time a cat is created through the giveBirth method, but it is also called\n    ///  when a new gen0 cat is created.\n    event Birth(\n        address owner,\n        uint256 kittyId,\n        uint256 matronId,\n        uint256 sireId,\n        uint256 genes\n    );\n\n    /// @dev Transfer event as defined in current draft of ERC721. Emitted every time a kitten\n    ///  ownership is assigned, including births.\n    event Transfer(address from, address to, uint256 tokenId);\n\n    /*** DATA TYPES ***/\n\n    /// @dev The main Kitty struct. Every cat in CryptoKitties is represented by a copy\n    ///  of this structure, so great care was taken to ensure that it fits neatly into\n    ///  exactly two 256-bit words. Note that the order of the members in this structure\n    ///  is important because of the byte-packing rules used by Ethereum.\n    ///  Ref: http://solidity.readthedocs.io/en/develop/miscellaneous.html\n    struct Kitty {\n        // The Kitty's genetic code is packed into these 256-bits, the format is\n        // sooper-sekret! A cat's genes never change.\n        uint256 genes;\n        // The timestamp from the block when this cat came into existence.\n        uint64 birthTime;\n        // The minimum timestamp after which this cat can engage in breeding\n        // activities again. This same timestamp is used for the pregnancy\n        // timer (for matrons) as well as the siring cooldown.\n        uint64 cooldownEndBlock;\n        // The ID of the parents of this kitty, set to 0 for gen0 cats.\n        // Note that using 32-bit unsigned integers limits us to a \"mere\"\n        // 4 billion cats. This number might seem small until you realize\n        // that Ethereum currently has a limit of about 500 million\n        // transactions per year! So, this definitely won't be a problem\n        // for several years (even as Ethereum learns to scale).\n        uint32 matronId;\n        uint32 sireId;\n        // Set to the ID of the sire cat for matrons that are pregnant,\n        // zero otherwise. A non-zero value here is how we know a cat\n        // is pregnant. Used to retrieve the genetic material for the new\n        // kitten when the birth transpires.\n        uint32 siringWithId;\n        // Set to the index in the cooldown array (see below) that represents\n        // the current cooldown duration for this Kitty. This starts at zero\n        // for gen0 cats, and is initialized to floor(generation/2) for others.\n        // Incremented by one for each successful breeding action, regardless\n        // of whether this cat is acting as matron or sire.\n        uint16 cooldownIndex;\n        // The \"generation number\" of this cat. Cats minted by the CK contract\n        // for sale are called \"gen0\" and have a generation number of 0. The\n        // generation number of all other cats is the larger of the two generation\n        // numbers of their parents, plus one.\n        // (i.e. max(matron.generation, sire.generation) + 1)\n        uint16 generation;\n    }\n\n    /*** CONSTANTS ***/\n\n    /// @dev A lookup table indicating the cooldown duration after any successful\n    ///  breeding action, called \"pregnancy time\" for matrons and \"siring cooldown\"\n    ///  for sires. Designed such that the cooldown roughly doubles each time a cat\n    ///  is bred, encouraging owners not to just keep breeding the same cat over\n    ///  and over again. Caps out at one week (a cat can breed an unbounded number\n    ///  of times, and the maximum cooldown is always seven days).\n    uint32[14] public cooldowns = [\n        uint32(1 minutes),\n        uint32(2 minutes),\n        uint32(5 minutes),\n        uint32(10 minutes),\n        uint32(30 minutes),\n        uint32(1 hours),\n        uint32(2 hours),\n        uint32(4 hours),\n        uint32(8 hours),\n        uint32(16 hours),\n        uint32(1 days),\n        uint32(2 days),\n        uint32(4 days),\n        uint32(7 days)\n    ];\n\n    // An approximation of currently how many seconds are in between blocks.\n    uint256 public secondsPerBlock = 15;\n\n    /*** STORAGE ***/\n\n    /// @dev An array containing the Kitty struct for all Kitties in existence. The ID\n    ///  of each cat is actually an index into this array. Note that ID 0 is a negacat,\n    ///  the unKitty, the mythical beast that is the parent of all gen0 cats. A bizarre\n    ///  creature that is both matron and sire... to itself! Has an invalid genetic code.\n    ///  In other words, cat ID 0 is invalid... ;-)\n    Kitty[] kitties;\n\n    /// @dev A mapping from cat IDs to the address that owns them. All cats have\n    ///  some valid owner address, even gen0 cats are created with a non-zero owner.\n    mapping(uint256 => address) public kittyIndexToOwner;\n\n    // @dev A mapping from owner address to count of tokens that address owns.\n    //  Used internally inside balanceOf() to resolve ownership count.\n    mapping(address => uint256) ownershipTokenCount;\n\n    /// @dev A mapping from KittyIDs to an address that has been approved to call\n    ///  transferFrom(). Each Kitty can only have one approved address for transfer\n    ///  at any time. A zero value means no approval is outstanding.\n    mapping(uint256 => address) public kittyIndexToApproved;\n\n    /// @dev A mapping from KittyIDs to an address that has been approved to use\n    ///  this Kitty for siring via breedWith(). Each Kitty can only have one approved\n    ///  address for siring at any time. A zero value means no approval is outstanding.\n    mapping(uint256 => address) public sireAllowedToAddress;\n\n    /// @dev The address of the ClockAuction contract that handles sales of Kitties. This\n    ///  same contract handles both peer-to-peer sales as well as the gen0 sales which are\n    ///  initiated every 15 minutes.\n    SaleClockAuction public saleAuction;\n\n    /// @dev The address of a custom ClockAuction subclassed contract that handles siring\n    ///  auctions. Needs to be separate from saleAuction because the actions taken on success\n    ///  after a sales and siring auction are quite different.\n    SiringClockAuction public siringAuction;\n\n    /// @dev Assigns ownership of a specific Kitty to an address.\n    function _transfer(\n        address _from,\n        address _to,\n        uint256 _tokenId\n    ) internal {\n        // Since the number of kittens is capped to 2^32 we can't overflow this\n        ownershipTokenCount[_to]++;\n        // transfer ownership\n        kittyIndexToOwner[_tokenId] = _to;\n        // When creating new kittens _from is 0x0, but we can't account that address.\n        if (_from != address(0)) {\n            ownershipTokenCount[_from]--;\n            // once the kitten is transferred also clear sire allowances\n            delete sireAllowedToAddress[_tokenId];\n            // clear any previously approved ownership exchange\n            delete kittyIndexToApproved[_tokenId];\n        }\n        // Emit the transfer event.\n        Transfer(_from, _to, _tokenId);\n    }\n\n    /// @dev An internal method that creates a new kitty and stores it. This\n    ///  method doesn't do any checking and should only be called when the\n    ///  input data is known to be valid. Will generate both a Birth event\n    ///  and a Transfer event.\n    /// @param _matronId The kitty ID of the matron of this cat (zero for gen0)\n    /// @param _sireId The kitty ID of the sire of this cat (zero for gen0)\n    /// @param _generation The generation number of this cat, must be computed by caller.\n    /// @param _genes The kitty's genetic code.\n    /// @param _owner The inital owner of this cat, must be non-zero (except for the unKitty, ID 0)\n    function _createKitty(\n        uint256 _matronId,\n        uint256 _sireId,\n        uint256 _generation,\n        uint256 _genes,\n        address _owner\n    ) internal returns (uint256) {\n        // These requires are not strictly necessary, our calling code should make\n        // sure that these conditions are never broken. However! _createKitty() is already\n        // an expensive call (for storage), and it doesn't hurt to be especially careful\n        // to ensure our data structures are always valid.\n        require(_matronId == uint256(uint32(_matronId)));\n        require(_sireId == uint256(uint32(_sireId)));\n        require(_generation == uint256(uint16(_generation)));\n\n        // New kitty starts with the same cooldown as parent gen/2\n        uint16 cooldownIndex = uint16(_generation / 2);\n        if (cooldownIndex > 13) {\n            cooldownIndex = 13;\n        }\n\n        Kitty memory _kitty = Kitty({\n            genes: _genes,\n            birthTime: uint64(now),\n            cooldownEndBlock: 0,\n            matronId: uint32(_matronId),\n            sireId: uint32(_sireId),\n            siringWithId: 0,\n            cooldownIndex: cooldownIndex,\n            generation: uint16(_generation)\n        });\n        uint256 newKittenId = kitties.push(_kitty) - 1;\n\n        // It's probably never going to happen, 4 billion cats is A LOT, but\n        // let's just be 100% sure we never let this happen.\n        require(newKittenId == uint256(uint32(newKittenId)));\n\n        // emit the birth event\n        Birth(\n            _owner,\n            newKittenId,\n            uint256(_kitty.matronId),\n            uint256(_kitty.sireId),\n            _kitty.genes\n        );\n\n        // This will assign ownership, and also emit the Transfer event as\n        // per ERC721 draft\n        _transfer(0, _owner, newKittenId);\n\n        return newKittenId;\n    }\n\n    // Any C-level can fix how many seconds per blocks are currently observed.\n    function setSecondsPerBlock(uint256 secs) external onlyCLevel {\n        require(secs < cooldowns[0]);\n        secondsPerBlock = secs;\n    }\n}\n\n/// @title The external contract that is responsible for generating metadata for the kitties,\n///  it has one function that will return the data as bytes.\ncontract ERC721Metadata {\n    /// @dev Given a token Id, returns a byte array that is supposed to be converted into string.\n    function getMetadata(uint256 _tokenId, string)\n        public\n        view\n        returns (bytes32[4] buffer, uint256 count)\n    {\n        if (_tokenId == 1) {\n            buffer[0] = \"Hello World! :D\";\n            count = 15;\n        } else if (_tokenId == 2) {\n            buffer[0] = \"I would definitely choose a medi\";\n            buffer[1] = \"um length string.\";\n            count = 49;\n        } else if (_tokenId == 3) {\n            buffer[0] = \"Lorem ipsum dolor sit amet, mi e\";\n            buffer[1] = \"st accumsan dapibus augue lorem,\";\n            buffer[2] = \" tristique vestibulum id, libero\";\n            buffer[3] = \" suscipit varius sapien aliquam.\";\n            count = 128;\n        }\n    }\n}\n\n/// @title The facet of the CryptoKitties core contract that manages ownership, ERC-721 (draft) compliant.\n/// @author Axiom Zen (https://www.axiomzen.co)\n/// @dev Ref: https://github.com/ethereum/EIPs/issues/721\n///  See the KittyCore contract documentation to understand how the various contract facets are arranged.\ncontract KittyOwnership is KittyBase, ERC721 {\n    /// @notice Name and symbol of the non fungible token, as defined in ERC721.\n    string public constant name = \"CryptoKitties\";\n    string public constant symbol = \"CK\";\n\n    // The contract that will return kitty metadata\n    ERC721Metadata public erc721Metadata;\n\n    bytes4 constant InterfaceSignature_ERC165 = bytes4(\n        keccak256(\"supportsInterface(bytes4)\")\n    );\n\n    bytes4 constant InterfaceSignature_ERC721 = bytes4(keccak256(\"name()\")) ^\n        bytes4(keccak256(\"symbol()\")) ^\n        bytes4(keccak256(\"totalSupply()\")) ^\n        bytes4(keccak256(\"balanceOf(address)\")) ^\n        bytes4(keccak256(\"ownerOf(uint256)\")) ^\n        bytes4(keccak256(\"approve(address,uint256)\")) ^\n        bytes4(keccak256(\"transfer(address,uint256)\")) ^\n        bytes4(keccak256(\"transferFrom(address,address,uint256)\")) ^\n        bytes4(keccak256(\"tokensOfOwner(address)\")) ^\n        bytes4(keccak256(\"tokenMetadata(uint256,string)\"));\n\n    /// @notice Introspection interface as per ERC-165 (https://github.com/ethereum/EIPs/issues/165).\n    ///  Returns true for any standardized interfaces implemented by this contract. We implement\n    ///  ERC-165 (obviously!) and ERC-721.\n    function supportsInterface(bytes4 _interfaceID)\n        external\n        view\n        returns (bool)\n    {\n        // DEBUG ONLY\n        //require((InterfaceSignature_ERC165 == 0x01ffc9a7) && (InterfaceSignature_ERC721 == 0x9a20483d));\n\n        return ((_interfaceID == InterfaceSignature_ERC165) ||\n            (_interfaceID == InterfaceSignature_ERC721));\n    }\n\n    /// @dev Set the address of the sibling contract that tracks metadata.\n    ///  CEO only.\n    function setMetadataAddress(address _contractAddress) public onlyCEO {\n        erc721Metadata = ERC721Metadata(_contractAddress);\n    }\n\n    // Internal utility functions: These functions all assume that their input arguments\n    // are valid. We leave it to public methods to sanitize their inputs and follow\n    // the required logic.\n\n    /// @dev Checks if a given address is the current owner of a particular Kitty.\n    /// @param _claimant the address we are validating against.\n    /// @param _tokenId kitten id, only valid when > 0\n    function _owns(address _claimant, uint256 _tokenId)\n        internal\n        view\n        returns (bool)\n    {\n        return kittyIndexToOwner[_tokenId] == _claimant;\n    }\n\n    /// @dev Checks if a given address currently has transferApproval for a particular Kitty.\n    /// @param _claimant the address we are confirming kitten is approved for.\n    /// @param _tokenId kitten id, only valid when > 0\n    function _approvedFor(address _claimant, uint256 _tokenId)\n        internal\n        view\n        returns (bool)\n    {\n        return kittyIndexToApproved[_tokenId] == _claimant;\n    }\n\n    /// @dev Marks an address as being approved for transferFrom(), overwriting any previous\n    ///  approval. Setting _approved to address(0) clears all transfer approval.\n    ///  NOTE: _approve() does NOT send the Approval event. This is intentional because\n    ///  _approve() and transferFrom() are used together for putting Kitties on auction, and\n    ///  there is no value in spamming the log with Approval events in that case.\n    function _approve(uint256 _tokenId, address _approved) internal {\n        kittyIndexToApproved[_tokenId] = _approved;\n    }\n\n    /// @notice Returns the number of Kitties owned by a specific address.\n    /// @param _owner The owner address to check.\n    /// @dev Required for ERC-721 compliance\n    function balanceOf(address _owner) public view returns (uint256 count) {\n        return ownershipTokenCount[_owner];\n    }\n\n    /// @notice Transfers a Kitty to another address. If transferring to a smart\n    ///  contract be VERY CAREFUL to ensure that it is aware of ERC-721 (or\n    ///  CryptoKitties specifically) or your Kitty may be lost forever. Seriously.\n    /// @param _to The address of the recipient, can be a user or contract.\n    /// @param _tokenId The ID of the Kitty to transfer.\n    /// @dev Required for ERC-721 compliance.\n    function transfer(address _to, uint256 _tokenId) external whenNotPaused {\n        // Safety check to prevent against an unexpected 0x0 default.\n        require(_to != address(0));\n        // Disallow transfers to this contract to prevent accidental misuse.\n        // The contract should never own any kitties (except very briefly\n        // after a gen0 cat is created and before it goes on auction).\n        require(_to != address(this));\n        // Disallow transfers to the auction contracts to prevent accidental\n        // misuse. Auction contracts should only take ownership of kitties\n        // through the allow + transferFrom flow.\n        require(_to != address(saleAuction));\n        require(_to != address(siringAuction));\n\n        // You can only send your own cat.\n        require(_owns(msg.sender, _tokenId));\n\n        // Reassign ownership, clear pending approvals, emit Transfer event.\n        _transfer(msg.sender, _to, _tokenId);\n    }\n\n    /// @notice Grant another address the right to transfer a specific Kitty via\n    ///  transferFrom(). This is the preferred flow for transfering NFTs to contracts.\n    /// @param _to The address to be granted transfer approval. Pass address(0) to\n    ///  clear all approvals.\n    /// @param _tokenId The ID of the Kitty that can be transferred if this call succeeds.\n    /// @dev Required for ERC-721 compliance.\n    function approve(address _to, uint256 _tokenId) external whenNotPaused {\n        // Only an owner can grant transfer approval.\n        require(_owns(msg.sender, _tokenId));\n\n        // Register the approval (replacing any previous approval).\n        _approve(_tokenId, _to);\n\n        // Emit approval event.\n        Approval(msg.sender, _to, _tokenId);\n    }\n\n    /// @notice Transfer a Kitty owned by another address, for which the calling address\n    ///  has previously been granted transfer approval by the owner.\n    /// @param _from The address that owns the Kitty to be transfered.\n    /// @param _to The address that should take ownership of the Kitty. Can be any address,\n    ///  including the caller.\n    /// @param _tokenId The ID of the Kitty to be transferred.\n    /// @dev Required for ERC-721 compliance.\n    function transferFrom(\n        address _from,\n        address _to,\n        uint256 _tokenId\n    ) external whenNotPaused {\n        // Safety check to prevent against an unexpected 0x0 default.\n        require(_to != address(0));\n        // Disallow transfers to this contract to prevent accidental misuse.\n        // The contract should never own any kitties (except very briefly\n        // after a gen0 cat is created and before it goes on auction).\n        require(_to != address(this));\n        // Check for approval and valid ownership\n        require(_approvedFor(msg.sender, _tokenId));\n        require(_owns(_from, _tokenId));\n\n        // Reassign ownership (also clears pending approvals and emits Transfer event).\n        _transfer(_from, _to, _tokenId);\n    }\n\n    /// @notice Returns the total number of Kitties currently in existence.\n    /// @dev Required for ERC-721 compliance.\n    function totalSupply() public view returns (uint256) {\n        return kitties.length - 1;\n    }\n\n    /// @notice Returns the address currently assigned ownership of a given Kitty.\n    /// @dev Required for ERC-721 compliance.\n    function ownerOf(uint256 _tokenId) external view returns (address owner) {\n        owner = kittyIndexToOwner[_tokenId];\n\n        require(owner != address(0));\n    }\n\n    /// @notice Returns a list of all Kitty IDs assigned to an address.\n    /// @param _owner The owner whose Kitties we are interested in.\n    /// @dev This method MUST NEVER be called by smart contract code. First, it's fairly\n    ///  expensive (it walks the entire Kitty array looking for cats belonging to owner),\n    ///  but it also returns a dynamic array, which is only supported for web3 calls, and\n    ///  not contract-to-contract calls.\n    function tokensOfOwner(address _owner)\n        external\n        view\n        returns (uint256[] ownerTokens)\n    {\n        uint256 tokenCount = balanceOf(_owner);\n\n        if (tokenCount == 0) {\n            // Return an empty array\n            return new uint256[](0);\n        } else {\n            uint256[] memory result = new uint256[](tokenCount);\n            uint256 totalCats = totalSupply();\n            uint256 resultIndex = 0;\n\n            // We count on the fact that all cats have IDs starting at 1 and increasing\n            // sequentially up to the totalCat count.\n            uint256 catId;\n\n            for (catId = 1; catId <= totalCats; catId++) {\n                if (kittyIndexToOwner[catId] == _owner) {\n                    result[resultIndex] = catId;\n                    resultIndex++;\n                }\n            }\n\n            return result;\n        }\n    }\n\n    /// @dev Adapted from memcpy() by @arachnid (Nick Johnson <arachnid@notdot.net>)\n    ///  This method is licenced under the Apache License.\n    ///  Ref: https://github.com/Arachnid/solidity-stringutils/blob/2f6ca9accb48ae14c66f1437ec50ed19a0616f78/strings.sol\n    function _memcpy(\n        uint256 _dest,\n        uint256 _src,\n        uint256 _len\n    ) private view {\n        // Copy word-length chunks while possible\n        for (; _len >= 32; _len -= 32) {\n            assembly {\n                mstore(_dest, mload(_src))\n            }\n            _dest += 32;\n            _src += 32;\n        }\n\n        // Copy remaining bytes\n        uint256 mask = 256**(32 - _len) - 1;\n        assembly {\n            let srcpart := and(mload(_src), not(mask))\n            let destpart := and(mload(_dest), mask)\n            mstore(_dest, or(destpart, srcpart))\n        }\n    }\n\n    /// @dev Adapted from toString(slice) by @arachnid (Nick Johnson <arachnid@notdot.net>)\n    ///  This method is licenced under the Apache License.\n    ///  Ref: https://github.com/Arachnid/solidity-stringutils/blob/2f6ca9accb48ae14c66f1437ec50ed19a0616f78/strings.sol\n    function _toString(bytes32[4] _rawBytes, uint256 _stringLength)\n        private\n        view\n        returns (string)\n    {\n        var outputString = new string(_stringLength);\n        uint256 outputPtr;\n        uint256 bytesPtr;\n\n        assembly {\n            outputPtr := add(outputString, 32)\n            bytesPtr := _rawBytes\n        }\n\n        _memcpy(outputPtr, bytesPtr, _stringLength);\n\n        return outputString;\n    }\n\n    /// @notice Returns a URI pointing to a metadata package for this token conforming to\n    ///  ERC-721 (https://github.com/ethereum/EIPs/issues/721)\n    /// @param _tokenId The ID number of the Kitty whose metadata should be returned.\n    function tokenMetadata(uint256 _tokenId, string _preferredTransport)\n        external\n        view\n        returns (string infoUrl)\n    {\n        require(erc721Metadata != address(0));\n        bytes32[4] memory buffer;\n        uint256 count;\n        (buffer, count) = erc721Metadata.getMetadata(\n            _tokenId,\n            _preferredTransport\n        );\n\n        return _toString(buffer, count);\n    }\n}\n\n/// @title A facet of KittyCore that manages Kitty siring, gestation, and birth.\n/// @author Axiom Zen (https://www.axiomzen.co)\n/// @dev See the KittyCore contract documentation to understand how the various contract facets are arranged.\ncontract KittyBreeding is KittyOwnership {\n    /// @dev The Pregnant event is fired when two cats successfully breed and the pregnancy\n    ///  timer begins for the matron.\n    event Pregnant(\n        address owner,\n        uint256 matronId,\n        uint256 sireId,\n        uint256 cooldownEndBlock\n    );\n\n    /// @notice The minimum payment required to use breedWithAuto(). This fee goes towards\n    ///  the gas cost paid by whatever calls giveBirth(), and can be dynamically updated by\n    ///  the COO role as the gas price changes.\n    uint256 public autoBirthFee = 2 finney;\n\n    // Keeps track of number of pregnant kitties.\n    uint256 public pregnantKitties;\n\n    /// @dev The address of the sibling contract that is used to implement the sooper-sekret\n    ///  genetic combination algorithm.\n    GeneScienceInterface public geneScience;\n\n    /// @dev Update the address of the genetic contract, can only be called by the CEO.\n    /// @param _address An address of a GeneScience contract instance to be used from this point forward.\n    function setGeneScienceAddress(address _address) external onlyCEO {\n        GeneScienceInterface candidateContract = GeneScienceInterface(_address);\n\n        // NOTE: verify that a contract is what we expect - https://github.com/Lunyr/crowdsale-contracts/blob/cfadd15986c30521d8ba7d5b6f57b4fefcc7ac38/contracts/LunyrToken.sol#L117\n        require(candidateContract.isGeneScience());\n\n        // Set the new contract address\n        geneScience = candidateContract;\n    }\n\n    /// @dev Checks that a given kitten is able to breed. Requires that the\n    ///  current cooldown is finished (for sires) and also checks that there is\n    ///  no pending pregnancy.\n    function _isReadyToBreed(Kitty _kit) internal view returns (bool) {\n        // In addition to checking the cooldownEndBlock, we also need to check to see if\n        // the cat has a pending birth; there can be some period of time between the end\n        // of the pregnacy timer and the birth event.\n        return\n            (_kit.siringWithId == 0) &&\n            (_kit.cooldownEndBlock <= uint64(block.number));\n    }\n\n    /// @dev Check if a sire has authorized breeding with this matron. True if both sire\n    ///  and matron have the same owner, or if the sire has given siring permission to\n    ///  the matron's owner (via approveSiring()).\n    function _isSiringPermitted(uint256 _sireId, uint256 _matronId)\n        internal\n        view\n        returns (bool)\n    {\n        address matronOwner = kittyIndexToOwner[_matronId];\n        address sireOwner = kittyIndexToOwner[_sireId];\n\n        // Siring is okay if they have same owner, or if the matron's owner was given\n        // permission to breed with this sire.\n        return (matronOwner == sireOwner ||\n            sireAllowedToAddress[_sireId] == matronOwner);\n    }\n\n    /// @dev Set the cooldownEndTime for the given Kitty, based on its current cooldownIndex.\n    ///  Also increments the cooldownIndex (unless it has hit the cap).\n    /// @param _kitten A reference to the Kitty in storage which needs its timer started.\n    function _triggerCooldown(Kitty storage _kitten) internal {\n        // Compute an estimation of the cooldown time in blocks (based on current cooldownIndex).\n        _kitten.cooldownEndBlock = uint64(\n            (cooldowns[_kitten.cooldownIndex] / secondsPerBlock) + block.number\n        );\n\n        // Increment the breeding count, clamping it at 13, which is the length of the\n        // cooldowns array. We could check the array size dynamically, but hard-coding\n        // this as a constant saves gas. Yay, Solidity!\n        if (_kitten.cooldownIndex < 13) {\n            _kitten.cooldownIndex += 1;\n        }\n    }\n\n    /// @notice Grants approval to another user to sire with one of your Kitties.\n    /// @param _addr The address that will be able to sire with your Kitty. Set to\n    ///  address(0) to clear all siring approvals for this Kitty.\n    /// @param _sireId A Kitty that you own that _addr will now be able to sire with.\n    function approveSiring(address _addr, uint256 _sireId)\n        external\n        whenNotPaused\n    {\n        require(_owns(msg.sender, _sireId));\n        sireAllowedToAddress[_sireId] = _addr;\n    }\n\n    /// @dev Updates the minimum payment required for calling giveBirthAuto(). Can only\n    ///  be called by the COO address. (This fee is used to offset the gas cost incurred\n    ///  by the autobirth daemon).\n    function setAutoBirthFee(uint256 val) external onlyCOO {\n        autoBirthFee = val;\n    }\n\n    /// @dev Checks to see if a given Kitty is pregnant and (if so) if the gestation\n    ///  period has passed.\n    function _isReadyToGiveBirth(Kitty _matron) private view returns (bool) {\n        return\n            (_matron.siringWithId != 0) &&\n            (_matron.cooldownEndBlock <= uint64(block.number));\n    }\n\n    /// @notice Checks that a given kitten is able to breed (i.e. it is not pregnant or\n    ///  in the middle of a siring cooldown).\n    /// @param _kittyId reference the id of the kitten, any user can inquire about it\n    function isReadyToBreed(uint256 _kittyId) public view returns (bool) {\n        require(_kittyId > 0);\n        Kitty storage kit = kitties[_kittyId];\n        return _isReadyToBreed(kit);\n    }\n\n    /// @dev Checks whether a kitty is currently pregnant.\n    /// @param _kittyId reference the id of the kitten, any user can inquire about it\n    function isPregnant(uint256 _kittyId) public view returns (bool) {\n        require(_kittyId > 0);\n        // A kitty is pregnant if and only if this field is set\n        return kitties[_kittyId].siringWithId != 0;\n    }\n\n    /// @dev Internal check to see if a given sire and matron are a valid mating pair. DOES NOT\n    ///  check ownership permissions (that is up to the caller).\n    /// @param _matron A reference to the Kitty struct of the potential matron.\n    /// @param _matronId The matron's ID.\n    /// @param _sire A reference to the Kitty struct of the potential sire.\n    /// @param _sireId The sire's ID\n    function _isValidMatingPair(\n        Kitty storage _matron,\n        uint256 _matronId,\n        Kitty storage _sire,\n        uint256 _sireId\n    ) private view returns (bool) {\n        // A Kitty can't breed with itself!\n        if (_matronId == _sireId) {\n            return false;\n        }\n\n        // Kitties can't breed with their parents.\n        if (_matron.matronId == _sireId || _matron.sireId == _sireId) {\n            return false;\n        }\n        if (_sire.matronId == _matronId || _sire.sireId == _matronId) {\n            return false;\n        }\n\n        // We can short circuit the sibling check (below) if either cat is\n        // gen zero (has a matron ID of zero).\n        if (_sire.matronId == 0 || _matron.matronId == 0) {\n            return true;\n        }\n\n        // Kitties can't breed with full or half siblings.\n        if (\n            _sire.matronId == _matron.matronId ||\n            _sire.matronId == _matron.sireId\n        ) {\n            return false;\n        }\n        if (\n            _sire.sireId == _matron.matronId || _sire.sireId == _matron.sireId\n        ) {\n            return false;\n        }\n\n        // Everything seems cool! Let's get DTF.\n        return true;\n    }\n\n    /// @dev Internal check to see if a given sire and matron are a valid mating pair for\n    ///  breeding via auction (i.e. skips ownership and siring approval checks).\n    function _canBreedWithViaAuction(uint256 _matronId, uint256 _sireId)\n        internal\n        view\n        returns (bool)\n    {\n        Kitty storage matron = kitties[_matronId];\n        Kitty storage sire = kitties[_sireId];\n        return _isValidMatingPair(matron, _matronId, sire, _sireId);\n    }\n\n    /// @notice Checks to see if two cats can breed together, including checks for\n    ///  ownership and siring approvals. Does NOT check that both cats are ready for\n    ///  breeding (i.e. breedWith could still fail until the cooldowns are finished).\n    ///  TODO: Shouldn't this check pregnancy and cooldowns?!?\n    /// @param _matronId The ID of the proposed matron.\n    /// @param _sireId The ID of the proposed sire.\n    function canBreedWith(uint256 _matronId, uint256 _sireId)\n        external\n        view\n        returns (bool)\n    {\n        require(_matronId > 0);\n        require(_sireId > 0);\n        Kitty storage matron = kitties[_matronId];\n        Kitty storage sire = kitties[_sireId];\n        return\n            _isValidMatingPair(matron, _matronId, sire, _sireId) &&\n            _isSiringPermitted(_sireId, _matronId);\n    }\n\n    /// @dev Internal utility function to initiate breeding, assumes that all breeding\n    ///  requirements have been checked.\n    function _breedWith(uint256 _matronId, uint256 _sireId) internal {\n        // Grab a reference to the Kitties from storage.\n        Kitty storage sire = kitties[_sireId];\n        Kitty storage matron = kitties[_matronId];\n\n        // Mark the matron as pregnant, keeping track of who the sire is.\n        matron.siringWithId = uint32(_sireId);\n\n        // Trigger the cooldown for both parents.\n        _triggerCooldown(sire);\n        _triggerCooldown(matron);\n\n        // Clear siring permission for both parents. This may not be strictly necessary\n        // but it's likely to avoid confusion!\n        delete sireAllowedToAddress[_matronId];\n        delete sireAllowedToAddress[_sireId];\n\n        // Every time a kitty gets pregnant, counter is incremented.\n        pregnantKitties++;\n\n        // Emit the pregnancy event.\n        Pregnant(\n            kittyIndexToOwner[_matronId],\n            _matronId,\n            _sireId,\n            matron.cooldownEndBlock\n        );\n    }\n\n    /// @notice Breed a Kitty you own (as matron) with a sire that you own, or for which you\n    ///  have previously been given Siring approval. Will either make your cat pregnant, or will\n    ///  fail entirely. Requires a pre-payment of the fee given out to the first caller of giveBirth()\n    /// @param _matronId The ID of the Kitty acting as matron (will end up pregnant if successful)\n    /// @param _sireId The ID of the Kitty acting as sire (will begin its siring cooldown if successful)\n    function breedWithAuto(uint256 _matronId, uint256 _sireId)\n        external\n        payable\n        whenNotPaused\n    {\n        // Checks for payment.\n        require(msg.value >= autoBirthFee);\n\n        // Caller must own the matron.\n        require(_owns(msg.sender, _matronId));\n\n        // Neither sire nor matron are allowed to be on auction during a normal\n        // breeding operation, but we don't need to check that explicitly.\n        // For matron: The caller of this function can't be the owner of the matron\n        //   because the owner of a Kitty on auction is the auction house, and the\n        //   auction house will never call breedWith().\n        // For sire: Similarly, a sire on auction will be owned by the auction house\n        //   and the act of transferring ownership will have cleared any oustanding\n        //   siring approval.\n        // Thus we don't need to spend gas explicitly checking to see if either cat\n        // is on auction.\n\n        // Check that matron and sire are both owned by caller, or that the sire\n        // has given siring permission to caller (i.e. matron's owner).\n        // Will fail for _sireId = 0\n        require(_isSiringPermitted(_sireId, _matronId));\n\n        // Grab a reference to the potential matron\n        Kitty storage matron = kitties[_matronId];\n\n        // Make sure matron isn't pregnant, or in the middle of a siring cooldown\n        require(_isReadyToBreed(matron));\n\n        // Grab a reference to the potential sire\n        Kitty storage sire = kitties[_sireId];\n\n        // Make sure sire isn't pregnant, or in the middle of a siring cooldown\n        require(_isReadyToBreed(sire));\n\n        // Test that these cats are a valid mating pair.\n        require(_isValidMatingPair(matron, _matronId, sire, _sireId));\n\n        // All checks passed, kitty gets pregnant!\n        _breedWith(_matronId, _sireId);\n    }\n\n    /// @notice Have a pregnant Kitty give birth!\n    /// @param _matronId A Kitty ready to give birth.\n    /// @return The Kitty ID of the new kitten.\n    /// @dev Looks at a given Kitty and, if pregnant and if the gestation period has passed,\n    ///  combines the genes of the two parents to create a new kitten. The new Kitty is assigned\n    ///  to the current owner of the matron. Upon successful completion, both the matron and the\n    ///  new kitten will be ready to breed again. Note that anyone can call this function (if they\n    ///  are willing to pay the gas!), but the new kitten always goes to the mother's owner.\n    function giveBirth(uint256 _matronId)\n        external\n        whenNotPaused\n        returns (uint256)\n    {\n        // Grab a reference to the matron in storage.\n        Kitty storage matron = kitties[_matronId];\n\n        // Check that the matron is a valid cat.\n        require(matron.birthTime != 0);\n\n        // Check that the matron is pregnant, and that its time has come!\n        require(_isReadyToGiveBirth(matron));\n\n        // Grab a reference to the sire in storage.\n        uint256 sireId = matron.siringWithId;\n        Kitty storage sire = kitties[sireId];\n\n        // Determine the higher generation number of the two parents\n        uint16 parentGen = matron.generation;\n        if (sire.generation > matron.generation) {\n            parentGen = sire.generation;\n        }\n\n        // Call the sooper-sekret gene mixing operation.\n        uint256 childGenes = geneScience.mixGenes(\n            matron.genes,\n            sire.genes,\n            matron.cooldownEndBlock - 1\n        );\n\n        // Make the new kitten!\n        address owner = kittyIndexToOwner[_matronId];\n        uint256 kittenId = _createKitty(\n            _matronId,\n            matron.siringWithId,\n            parentGen + 1,\n            childGenes,\n            owner\n        );\n\n        // Clear the reference to sire from the matron (REQUIRED! Having siringWithId\n        // set is what marks a matron as being pregnant.)\n        delete matron.siringWithId;\n\n        // Every time a kitty gives birth counter is decremented.\n        pregnantKitties--;\n\n        // Send the balance fee to the person who made birth happen.\n        msg.sender.send(autoBirthFee);\n\n        // return the new kitten's ID\n        return kittenId;\n    }\n}\n\n/// @title Auction Core\n/// @dev Contains models, variables, and internal methods for the auction.\n/// @notice We omit a fallback function to prevent accidental sends to this contract.\ncontract ClockAuctionBase {\n    // Represents an auction on an NFT\n    struct Auction {\n        // Current owner of NFT\n        address seller;\n        // Price (in wei) at beginning of auction\n        uint128 startingPrice;\n        // Price (in wei) at end of auction\n        uint128 endingPrice;\n        // Duration (in seconds) of auction\n        uint64 duration;\n        // Time when auction started\n        // NOTE: 0 if this auction has been concluded\n        uint64 startedAt;\n    }\n\n    // Reference to contract tracking NFT ownership\n    ERC721 public nonFungibleContract;\n\n    // Cut owner takes on each auction, measured in basis points (1/100 of a percent).\n    // Values 0-10,000 map to 0%-100%\n    uint256 public ownerCut;\n\n    // Map from token ID to their corresponding auction.\n    mapping(uint256 => Auction) tokenIdToAuction;\n\n    event AuctionCreated(\n        uint256 tokenId,\n        uint256 startingPrice,\n        uint256 endingPrice,\n        uint256 duration\n    );\n    event AuctionSuccessful(\n        uint256 tokenId,\n        uint256 totalPrice,\n        address winner\n    );\n    event AuctionCancelled(uint256 tokenId);\n\n    /// @dev Returns true if the claimant owns the token.\n    /// @param _claimant - Address claiming to own the token.\n    /// @param _tokenId - ID of token whose ownership to verify.\n    function _owns(address _claimant, uint256 _tokenId)\n        internal\n        view\n        returns (bool)\n    {\n        return (nonFungibleContract.ownerOf(_tokenId) == _claimant);\n    }\n\n    /// @dev Escrows the NFT, assigning ownership to this contract.\n    /// Throws if the escrow fails.\n    /// @param _owner - Current owner address of token to escrow.\n    /// @param _tokenId - ID of token whose approval to verify.\n    function _escrow(address _owner, uint256 _tokenId) internal {\n        // it will throw if transfer fails\n        nonFungibleContract.transferFrom(_owner, this, _tokenId);\n    }\n\n    /// @dev Transfers an NFT owned by this contract to another address.\n    /// Returns true if the transfer succeeds.\n    /// @param _receiver - Address to transfer NFT to.\n    /// @param _tokenId - ID of token to transfer.\n    function _transfer(address _receiver, uint256 _tokenId) internal {\n        // it will throw if transfer fails\n        nonFungibleContract.transfer(_receiver, _tokenId);\n    }\n\n    /// @dev Adds an auction to the list of open auctions. Also fires the\n    ///  AuctionCreated event.\n    /// @param _tokenId The ID of the token to be put on auction.\n    /// @param _auction Auction to add.\n    function _addAuction(uint256 _tokenId, Auction _auction) internal {\n        // Require that all auctions have a duration of\n        // at least one minute. (Keeps our math from getting hairy!)\n        require(_auction.duration >= 1 minutes);\n\n        tokenIdToAuction[_tokenId] = _auction;\n\n        AuctionCreated(\n            uint256(_tokenId),\n            uint256(_auction.startingPrice),\n            uint256(_auction.endingPrice),\n            uint256(_auction.duration)\n        );\n    }\n\n    /// @dev Cancels an auction unconditionally.\n    function _cancelAuction(uint256 _tokenId, address _seller) internal {\n        _removeAuction(_tokenId);\n        _transfer(_seller, _tokenId);\n        AuctionCancelled(_tokenId);\n    }\n\n    /// @dev Computes the price and transfers winnings.\n    /// Does NOT transfer ownership of token.\n    function _bid(uint256 _tokenId, uint256 _bidAmount)\n        internal\n        returns (uint256)\n    {\n        // Get a reference to the auction struct\n        Auction storage auction = tokenIdToAuction[_tokenId];\n\n        // Explicitly check that this auction is currently live.\n        // (Because of how Ethereum mappings work, we can't just count\n        // on the lookup above failing. An invalid _tokenId will just\n        // return an auction object that is all zeros.)\n        require(_isOnAuction(auction));\n\n        // Check that the bid is greater than or equal to the current price\n        uint256 price = _currentPrice(auction);\n        require(_bidAmount >= price);\n\n        // Grab a reference to the seller before the auction struct\n        // gets deleted.\n        address seller = auction.seller;\n\n        // The bid is good! Remove the auction before sending the fees\n        // to the sender so we can't have a reentrancy attack.\n        _removeAuction(_tokenId);\n\n        // Transfer proceeds to seller (if there are any!)\n        if (price > 0) {\n            // Calculate the auctioneer's cut.\n            // (NOTE: _computeCut() is guaranteed to return a\n            // value <= price, so this subtraction can't go negative.)\n            uint256 auctioneerCut = _computeCut(price);\n            uint256 sellerProceeds = price - auctioneerCut;\n\n            // NOTE: Doing a transfer() in the middle of a complex\n            // method like this is generally discouraged because of\n            // reentrancy attacks and DoS attacks if the seller is\n            // a contract with an invalid fallback function. We explicitly\n            // guard against reentrancy attacks by removing the auction\n            // before calling transfer(), and the only thing the seller\n            // can DoS is the sale of their own asset! (And if it's an\n            // accident, they can call cancelAuction(). )\n            seller.transfer(sellerProceeds);\n        }\n\n        // Calculate any excess funds included with the bid. If the excess\n        // is anything worth worrying about, transfer it back to bidder.\n        // NOTE: We checked above that the bid amount is greater than or\n        // equal to the price so this cannot underflow.\n        uint256 bidExcess = _bidAmount - price;\n\n        // Return the funds. Similar to the previous transfer, this is\n        // not susceptible to a re-entry attack because the auction is\n        // removed before any transfers occur.\n        msg.sender.transfer(bidExcess);\n\n        // Tell the world!\n        AuctionSuccessful(_tokenId, price, msg.sender);\n\n        return price;\n    }\n\n    /// @dev Removes an auction from the list of open auctions.\n    /// @param _tokenId - ID of NFT on auction.\n    function _removeAuction(uint256 _tokenId) internal {\n        delete tokenIdToAuction[_tokenId];\n    }\n\n    /// @dev Returns true if the NFT is on auction.\n    /// @param _auction - Auction to check.\n    function _isOnAuction(Auction storage _auction)\n        internal\n        view\n        returns (bool)\n    {\n        return (_auction.startedAt > 0);\n    }\n\n    /// @dev Returns current price of an NFT on auction. Broken into two\n    ///  functions (this one, that computes the duration from the auction\n    ///  structure, and the other that does the price computation) so we\n    ///  can easily test that the price computation works correctly.\n    function _currentPrice(Auction storage _auction)\n        internal\n        view\n        returns (uint256)\n    {\n        uint256 secondsPassed = 0;\n\n        // A bit of insurance against negative values (or wraparound).\n        // Probably not necessary (since Ethereum guarnatees that the\n        // now variable doesn't ever go backwards).\n        if (now > _auction.startedAt) {\n            secondsPassed = now - _auction.startedAt;\n        }\n\n        return\n            _computeCurrentPrice(\n                _auction.startingPrice,\n                _auction.endingPrice,\n                _auction.duration,\n                secondsPassed\n            );\n    }\n\n    /// @dev Computes the current price of an auction. Factored out\n    ///  from _currentPrice so we can run extensive unit tests.\n    ///  When testing, make this function public and turn on\n    ///  `Current price computation` test suite.\n    function _computeCurrentPrice(\n        uint256 _startingPrice,\n        uint256 _endingPrice,\n        uint256 _duration,\n        uint256 _secondsPassed\n    ) internal pure returns (uint256) {\n        // NOTE: We don't use SafeMath (or similar) in this function because\n        //  all of our public functions carefully cap the maximum values for\n        //  time (at 64-bits) and currency (at 128-bits). _duration is\n        //  also known to be non-zero (see the require() statement in\n        //  _addAuction())\n        if (_secondsPassed >= _duration) {\n            // We've reached the end of the dynamic pricing portion\n            // of the auction, just return the end price.\n            return _endingPrice;\n        } else {\n            // Starting price can be higher than ending price (and often is!), so\n            // this delta can be negative.\n            int256 totalPriceChange = int256(_endingPrice) -\n                int256(_startingPrice);\n\n            // This multiplication can't overflow, _secondsPassed will easily fit within\n            // 64-bits, and totalPriceChange will easily fit within 128-bits, their product\n            // will always fit within 256-bits.\n            int256 currentPriceChange = (totalPriceChange *\n                int256(_secondsPassed)) / int256(_duration);\n\n            // currentPriceChange can be negative, but if so, will have a magnitude\n            // less that _startingPrice. Thus, this result will always end up positive.\n            int256 currentPrice = int256(_startingPrice) + currentPriceChange;\n\n            return uint256(currentPrice);\n        }\n    }\n\n    /// @dev Computes owner's cut of a sale.\n    /// @param _price - Sale price of NFT.\n    function _computeCut(uint256 _price) internal view returns (uint256) {\n        // NOTE: We don't use SafeMath (or similar) in this function because\n        //  all of our entry functions carefully cap the maximum values for\n        //  currency (at 128-bits), and ownerCut <= 10000 (see the require()\n        //  statement in the ClockAuction constructor). The result of this\n        //  function is always guaranteed to be <= _price.\n        return (_price * ownerCut) / 10000;\n    }\n}\n\n/**\n * @title Pausable\n * @dev Base contract which allows children to implement an emergency stop mechanism.\n */\ncontract Pausable is Ownable {\n    event Pause();\n    event Unpause();\n\n    bool public paused = false;\n\n    /**\n     * @dev modifier to allow actions only when the contract IS paused\n     */\n    modifier whenNotPaused() {\n        require(!paused);\n        _;\n    }\n\n    /**\n     * @dev modifier to allow actions only when the contract IS NOT paused\n     */\n    modifier whenPaused {\n        require(paused);\n        _;\n    }\n\n    /**\n     * @dev called by the owner to pause, triggers stopped state\n     */\n    function pause() onlyOwner whenNotPaused returns (bool) {\n        paused = true;\n        Pause();\n        return true;\n    }\n\n    /**\n     * @dev called by the owner to unpause, returns to normal state\n     */\n    function unpause() onlyOwner whenPaused returns (bool) {\n        paused = false;\n        Unpause();\n        return true;\n    }\n}\n\n/// @title Clock auction for non-fungible tokens.\n/// @notice We omit a fallback function to prevent accidental sends to this contract.\ncontract ClockAuction is Pausable, ClockAuctionBase {\n    /// @dev The ERC-165 interface signature for ERC-721.\n    ///  Ref: https://github.com/ethereum/EIPs/issues/165\n    ///  Ref: https://github.com/ethereum/EIPs/issues/721\n    bytes4 constant InterfaceSignature_ERC721 = bytes4(0x9a20483d);\n\n    /// @dev Constructor creates a reference to the NFT ownership contract\n    ///  and verifies the owner cut is in the valid range.\n    /// @param _nftAddress - address of a deployed contract implementing\n    ///  the Nonfungible Interface.\n    /// @param _cut - percent cut the owner takes on each auction, must be\n    ///  between 0-10,000.\n    function ClockAuction(address _nftAddress, uint256 _cut) public {\n        require(_cut <= 10000);\n        ownerCut = _cut;\n\n        ERC721 candidateContract = ERC721(_nftAddress);\n        require(candidateContract.supportsInterface(InterfaceSignature_ERC721));\n        nonFungibleContract = candidateContract;\n    }\n\n    /// @dev Remove all Ether from the contract, which is the owner's cuts\n    ///  as well as any Ether sent directly to the contract address.\n    ///  Always transfers to the NFT contract, but can be called either by\n    ///  the owner or the NFT contract.\n    function withdrawBalance() external {\n        address nftAddress = address(nonFungibleContract);\n\n        require(msg.sender == owner || msg.sender == nftAddress);\n        // We are using this boolean method to make sure that even if one fails it will still work\n        bool res = nftAddress.send(this.balance);\n    }\n\n    /// @dev Creates and begins a new auction.\n    /// @param _tokenId - ID of token to auction, sender must be owner.\n    /// @param _startingPrice - Price of item (in wei) at beginning of auction.\n    /// @param _endingPrice - Price of item (in wei) at end of auction.\n    /// @param _duration - Length of time to move between starting\n    ///  price and ending price (in seconds).\n    /// @param _seller - Seller, if not the message sender\n    function createAuction(\n        uint256 _tokenId,\n        uint256 _startingPrice,\n        uint256 _endingPrice,\n        uint256 _duration,\n        address _seller\n    ) external whenNotPaused {\n        // Sanity check that no inputs overflow how many bits we've allocated\n        // to store them in the auction struct.\n        require(_startingPrice == uint256(uint128(_startingPrice)));\n        require(_endingPrice == uint256(uint128(_endingPrice)));\n        require(_duration == uint256(uint64(_duration)));\n\n        require(_owns(msg.sender, _tokenId));\n        _escrow(msg.sender, _tokenId);\n        Auction memory auction = Auction(\n            _seller,\n            uint128(_startingPrice),\n            uint128(_endingPrice),\n            uint64(_duration),\n            uint64(now)\n        );\n        _addAuction(_tokenId, auction);\n    }\n\n    /// @dev Bids on an open auction, completing the auction and transferring\n    ///  ownership of the NFT if enough Ether is supplied.\n    /// @param _tokenId - ID of token to bid on.\n    function bid(uint256 _tokenId) external payable whenNotPaused {\n        // _bid will throw if the bid or funds transfer fails\n        _bid(_tokenId, msg.value);\n        _transfer(msg.sender, _tokenId);\n    }\n\n    /// @dev Cancels an auction that hasn't been won yet.\n    ///  Returns the NFT to original owner.\n    /// @notice This is a state-modifying function that can\n    ///  be called while the contract is paused.\n    /// @param _tokenId - ID of token on auction\n    function cancelAuction(uint256 _tokenId) external {\n        Auction storage auction = tokenIdToAuction[_tokenId];\n        require(_isOnAuction(auction));\n        address seller = auction.seller;\n        require(msg.sender == seller);\n        _cancelAuction(_tokenId, seller);\n    }\n\n    /// @dev Cancels an auction when the contract is paused.\n    ///  Only the owner may do this, and NFTs are returned to\n    ///  the seller. This should only be used in emergencies.\n    /// @param _tokenId - ID of the NFT on auction to cancel.\n    function cancelAuctionWhenPaused(uint256 _tokenId)\n        external\n        whenPaused\n        onlyOwner\n    {\n        Auction storage auction = tokenIdToAuction[_tokenId];\n        require(_isOnAuction(auction));\n        _cancelAuction(_tokenId, auction.seller);\n    }\n\n    /// @dev Returns auction info for an NFT on auction.\n    /// @param _tokenId - ID of NFT on auction.\n    function getAuction(uint256 _tokenId)\n        external\n        view\n        returns (\n            address seller,\n            uint256 startingPrice,\n            uint256 endingPrice,\n            uint256 duration,\n            uint256 startedAt\n        )\n    {\n        Auction storage auction = tokenIdToAuction[_tokenId];\n        require(_isOnAuction(auction));\n        return (\n            auction.seller,\n            auction.startingPrice,\n            auction.endingPrice,\n            auction.duration,\n            auction.startedAt\n        );\n    }\n\n    /// @dev Returns the current price of an auction.\n    /// @param _tokenId - ID of the token price we are checking.\n    function getCurrentPrice(uint256 _tokenId) external view returns (uint256) {\n        Auction storage auction = tokenIdToAuction[_tokenId];\n        require(_isOnAuction(auction));\n        return _currentPrice(auction);\n    }\n}\n\n/// @title Reverse auction modified for siring\n/// @notice We omit a fallback function to prevent accidental sends to this contract.\ncontract SiringClockAuction is ClockAuction {\n    // @dev Sanity check that allows us to ensure that we are pointing to the\n    //  right auction in our setSiringAuctionAddress() call.\n    bool public isSiringClockAuction = true;\n\n    // Delegate constructor\n    function SiringClockAuction(address _nftAddr, uint256 _cut)\n        public\n        ClockAuction(_nftAddr, _cut)\n    {}\n\n    /// @dev Creates and begins a new auction. Since this function is wrapped,\n    /// require sender to be KittyCore contract.\n    /// @param _tokenId - ID of token to auction, sender must be owner.\n    /// @param _startingPrice - Price of item (in wei) at beginning of auction.\n    /// @param _endingPrice - Price of item (in wei) at end of auction.\n    /// @param _duration - Length of auction (in seconds).\n    /// @param _seller - Seller, if not the message sender\n    function createAuction(\n        uint256 _tokenId,\n        uint256 _startingPrice,\n        uint256 _endingPrice,\n        uint256 _duration,\n        address _seller\n    ) external {\n        // Sanity check that no inputs overflow how many bits we've allocated\n        // to store them in the auction struct.\n        require(_startingPrice == uint256(uint128(_startingPrice)));\n        require(_endingPrice == uint256(uint128(_endingPrice)));\n        require(_duration == uint256(uint64(_duration)));\n\n        require(msg.sender == address(nonFungibleContract));\n        _escrow(_seller, _tokenId);\n        Auction memory auction = Auction(\n            _seller,\n            uint128(_startingPrice),\n            uint128(_endingPrice),\n            uint64(_duration),\n            uint64(now)\n        );\n        _addAuction(_tokenId, auction);\n    }\n\n    /// @dev Places a bid for siring. Requires the sender\n    /// is the KittyCore contract because all bid methods\n    /// should be wrapped. Also returns the kitty to the\n    /// seller rather than the winner.\n    function bid(uint256 _tokenId) external payable {\n        require(msg.sender == address(nonFungibleContract));\n        address seller = tokenIdToAuction[_tokenId].seller;\n        // _bid checks that token ID is valid and will throw if bid fails\n        _bid(_tokenId, msg.value);\n        // We transfer the kitty back to the seller, the winner will get\n        // the offspring\n        _transfer(seller, _tokenId);\n    }\n}\n\n/// @title Clock auction modified for sale of kitties\n/// @notice We omit a fallback function to prevent accidental sends to this contract.\ncontract SaleClockAuction is ClockAuction {\n    // @dev Sanity check that allows us to ensure that we are pointing to the\n    //  right auction in our setSaleAuctionAddress() call.\n    bool public isSaleClockAuction = true;\n\n    // Tracks last 5 sale price of gen0 kitty sales\n    uint256 public gen0SaleCount;\n    uint256[5] public lastGen0SalePrices;\n\n    // Delegate constructor\n    function SaleClockAuction(address _nftAddr, uint256 _cut)\n        public\n        ClockAuction(_nftAddr, _cut)\n    {}\n\n    /// @dev Creates and begins a new auction.\n    /// @param _tokenId - ID of token to auction, sender must be owner.\n    /// @param _startingPrice - Price of item (in wei) at beginning of auction.\n    /// @param _endingPrice - Price of item (in wei) at end of auction.\n    /// @param _duration - Length of auction (in seconds).\n    /// @param _seller - Seller, if not the message sender\n    function createAuction(\n        uint256 _tokenId,\n        uint256 _startingPrice,\n        uint256 _endingPrice,\n        uint256 _duration,\n        address _seller\n    ) external {\n        // Sanity check that no inputs overflow how many bits we've allocated\n        // to store them in the auction struct.\n        require(_startingPrice == uint256(uint128(_startingPrice)));\n        require(_endingPrice == uint256(uint128(_endingPrice)));\n        require(_duration == uint256(uint64(_duration)));\n\n        require(msg.sender == address(nonFungibleContract));\n        _escrow(_seller, _tokenId);\n        Auction memory auction = Auction(\n            _seller,\n            uint128(_startingPrice),\n            uint128(_endingPrice),\n            uint64(_duration),\n            uint64(now)\n        );\n        _addAuction(_tokenId, auction);\n    }\n\n    /// @dev Updates lastSalePrice if seller is the nft contract\n    /// Otherwise, works the same as default bid method.\n    function bid(uint256 _tokenId) external payable {\n        // _bid verifies token ID size\n        address seller = tokenIdToAuction[_tokenId].seller;\n        uint256 price = _bid(_tokenId, msg.value);\n        _transfer(msg.sender, _tokenId);\n\n        // If not a gen0 auction, exit\n        if (seller == address(nonFungibleContract)) {\n            // Track gen0 sale prices\n            lastGen0SalePrices[gen0SaleCount % 5] = price;\n            gen0SaleCount++;\n        }\n    }\n\n    function averageGen0SalePrice() external view returns (uint256) {\n        uint256 sum = 0;\n        for (uint256 i = 0; i < 5; i++) {\n            sum += lastGen0SalePrices[i];\n        }\n        return sum / 5;\n    }\n}\n\n/// @title Handles creating auctions for sale and siring of kitties.\n///  This wrapper of ReverseAuction exists only so that users can create\n///  auctions with only one transaction.\ncontract KittyAuction is KittyBreeding {\n    // @notice The auction contract variables are defined in KittyBase to allow\n    //  us to refer to them in KittyOwnership to prevent accidental transfers.\n    // `saleAuction` refers to the auction for gen0 and p2p sale of kitties.\n    // `siringAuction` refers to the auction for siring rights of kitties.\n\n    /// @dev Sets the reference to the sale auction.\n    /// @param _address - Address of sale contract.\n    function setSaleAuctionAddress(address _address) external onlyCEO {\n        SaleClockAuction candidateContract = SaleClockAuction(_address);\n\n        // NOTE: verify that a contract is what we expect - https://github.com/Lunyr/crowdsale-contracts/blob/cfadd15986c30521d8ba7d5b6f57b4fefcc7ac38/contracts/LunyrToken.sol#L117\n        require(candidateContract.isSaleClockAuction());\n\n        // Set the new contract address\n        saleAuction = candidateContract;\n    }\n\n    /// @dev Sets the reference to the siring auction.\n    /// @param _address - Address of siring contract.\n    function setSiringAuctionAddress(address _address) external onlyCEO {\n        SiringClockAuction candidateContract = SiringClockAuction(_address);\n\n        // NOTE: verify that a contract is what we expect - https://github.com/Lunyr/crowdsale-contracts/blob/cfadd15986c30521d8ba7d5b6f57b4fefcc7ac38/contracts/LunyrToken.sol#L117\n        require(candidateContract.isSiringClockAuction());\n\n        // Set the new contract address\n        siringAuction = candidateContract;\n    }\n\n    /// @dev Put a kitty up for auction.\n    ///  Does some ownership trickery to create auctions in one tx.\n    function createSaleAuction(\n        uint256 _kittyId,\n        uint256 _startingPrice,\n        uint256 _endingPrice,\n        uint256 _duration\n    ) external whenNotPaused {\n        // Auction contract checks input sizes\n        // If kitty is already on any auction, this will throw\n        // because it will be owned by the auction contract.\n        require(_owns(msg.sender, _kittyId));\n        // Ensure the kitty is not pregnant to prevent the auction\n        // contract accidentally receiving ownership of the child.\n        // NOTE: the kitty IS allowed to be in a cooldown.\n        require(!isPregnant(_kittyId));\n        _approve(_kittyId, saleAuction);\n        // Sale auction throws if inputs are invalid and clears\n        // transfer and sire approval after escrowing the kitty.\n        saleAuction.createAuction(\n            _kittyId,\n            _startingPrice,\n            _endingPrice,\n            _duration,\n            msg.sender\n        );\n    }\n\n    /// @dev Put a kitty up for auction to be sire.\n    ///  Performs checks to ensure the kitty can be sired, then\n    ///  delegates to reverse auction.\n    function createSiringAuction(\n        uint256 _kittyId,\n        uint256 _startingPrice,\n        uint256 _endingPrice,\n        uint256 _duration\n    ) external whenNotPaused {\n        // Auction contract checks input sizes\n        // If kitty is already on any auction, this will throw\n        // because it will be owned by the auction contract.\n        require(_owns(msg.sender, _kittyId));\n        require(isReadyToBreed(_kittyId));\n        _approve(_kittyId, siringAuction);\n        // Siring auction throws if inputs are invalid and clears\n        // transfer and sire approval after escrowing the kitty.\n        siringAuction.createAuction(\n            _kittyId,\n            _startingPrice,\n            _endingPrice,\n            _duration,\n            msg.sender\n        );\n    }\n\n    /// @dev Completes a siring auction by bidding.\n    ///  Immediately breeds the winning matron with the sire on auction.\n    /// @param _sireId - ID of the sire on auction.\n    /// @param _matronId - ID of the matron owned by the bidder.\n    function bidOnSiringAuction(uint256 _sireId, uint256 _matronId)\n        external\n        payable\n        whenNotPaused\n    {\n        // Auction contract checks input sizes\n        require(_owns(msg.sender, _matronId));\n        require(isReadyToBreed(_matronId));\n        require(_canBreedWithViaAuction(_matronId, _sireId));\n\n        // Define the current price of the auction.\n        uint256 currentPrice = siringAuction.getCurrentPrice(_sireId);\n        require(msg.value >= currentPrice + autoBirthFee);\n\n        // Siring auction will throw if the bid fails.\n        siringAuction.bid.value(msg.value - autoBirthFee)(_sireId);\n        _breedWith(uint32(_matronId), uint32(_sireId));\n    }\n\n    /// @dev Transfers the balance of the sale auction contract\n    /// to the KittyCore contract. We use two-step withdrawal to\n    /// prevent two transfer calls in the auction bid function.\n    function withdrawAuctionBalances() external onlyCLevel {\n        saleAuction.withdrawBalance();\n        siringAuction.withdrawBalance();\n    }\n}\n\n/// @title all functions related to creating kittens\ncontract KittyMinting is KittyAuction {\n    // Limits the number of cats the contract owner can ever create.\n    uint256 public constant PROMO_CREATION_LIMIT = 5000;\n    uint256 public constant GEN0_CREATION_LIMIT = 45000;\n\n    // Constants for gen0 auctions.\n    uint256 public constant GEN0_STARTING_PRICE = 10 finney;\n    uint256 public constant GEN0_AUCTION_DURATION = 1 days;\n\n    // Counts the number of cats the contract owner has created.\n    uint256 public promoCreatedCount;\n    uint256 public gen0CreatedCount;\n\n    /// @dev we can create promo kittens, up to a limit. Only callable by COO\n    /// @param _genes the encoded genes of the kitten to be created, any value is accepted\n    /// @param _owner the future owner of the created kittens. Default to contract COO\n    function createPromoKitty(uint256 _genes, address _owner) external onlyCOO {\n        address kittyOwner = _owner;\n        if (kittyOwner == address(0)) {\n            kittyOwner = cooAddress;\n        }\n        require(promoCreatedCount < PROMO_CREATION_LIMIT);\n\n        promoCreatedCount++;\n        _createKitty(0, 0, 0, _genes, kittyOwner);\n    }\n\n    /// @dev Creates a new gen0 kitty with the given genes and\n    ///  creates an auction for it.\n    function createGen0Auction(uint256 _genes) external onlyCOO {\n        require(gen0CreatedCount < GEN0_CREATION_LIMIT);\n\n        uint256 kittyId = _createKitty(0, 0, 0, _genes, address(this));\n        _approve(kittyId, saleAuction);\n\n        saleAuction.createAuction(\n            kittyId,\n            _computeNextGen0Price(),\n            0,\n            GEN0_AUCTION_DURATION,\n            address(this)\n        );\n\n        gen0CreatedCount++;\n    }\n\n    /// @dev Computes the next gen0 auction starting price, given\n    ///  the average of the past 5 prices + 50%.\n    function _computeNextGen0Price() internal view returns (uint256) {\n        uint256 avePrice = saleAuction.averageGen0SalePrice();\n\n        // Sanity check to ensure we don't overflow arithmetic\n        require(avePrice == uint256(uint128(avePrice)));\n\n        uint256 nextPrice = avePrice + (avePrice / 2);\n\n        // We never auction for less than starting price\n        if (nextPrice < GEN0_STARTING_PRICE) {\n            nextPrice = GEN0_STARTING_PRICE;\n        }\n\n        return nextPrice;\n    }\n}\n\n/// @title CryptoKitties: Collectible, breedable, and oh-so-adorable cats on the Ethereum blockchain.\n/// @author Axiom Zen (https://www.axiomzen.co)\n/// @dev The main CryptoKitties contract, keeps track of kittens so they don't wander around and get lost.\ncontract KittyCore is KittyMinting {\n    // This is the main CryptoKitties contract. In order to keep our code seperated into logical sections,\n    // we've broken it up in two ways. First, we have several seperately-instantiated sibling contracts\n    // that handle auctions and our super-top-secret genetic combination algorithm. The auctions are\n    // seperate since their logic is somewhat complex and there's always a risk of subtle bugs. By keeping\n    // them in their own contracts, we can upgrade them without disrupting the main contract that tracks\n    // kitty ownership. The genetic combination algorithm is kept seperate so we can open-source all of\n    // the rest of our code without making it _too_ easy for folks to figure out how the genetics work.\n    // Don't worry, I'm sure someone will reverse engineer it soon enough!\n    //\n    // Secondly, we break the core contract into multiple files using inheritence, one for each major\n    // facet of functionality of CK. This allows us to keep related code bundled together while still\n    // avoiding a single giant file with everything in it. The breakdown is as follows:\n    //\n    //      - KittyBase: This is where we define the most fundamental code shared throughout the core\n    //             functionality. This includes our main data storage, constants and data types, plus\n    //             internal functions for managing these items.\n    //\n    //      - KittyAccessControl: This contract manages the various addresses and constraints for operations\n    //             that can be executed only by specific roles. Namely CEO, CFO and COO.\n    //\n    //      - KittyOwnership: This provides the methods required for basic non-fungible token\n    //             transactions, following the draft ERC-721 spec (https://github.com/ethereum/EIPs/issues/721).\n    //\n    //      - KittyBreeding: This file contains the methods necessary to breed cats together, including\n    //             keeping track of siring offers, and relies on an external genetic combination contract.\n    //\n    //      - KittyAuctions: Here we have the public methods for auctioning or bidding on cats or siring\n    //             services. The actual auction functionality is handled in two sibling contracts (one\n    //             for sales and one for siring), while auction creation and bidding is mostly mediated\n    //             through this facet of the core contract.\n    //\n    //      - KittyMinting: This final facet contains the functionality we use for creating new gen0 cats.\n    //             We can make up to 5000 \"promo\" cats that can be given away (especially important when\n    //             the community is new), and all others can only be created and then immediately put up\n    //             for auction via an algorithmically determined starting price. Regardless of how they\n    //             are created, there is a hard limit of 50k gen0 cats. After that, it's all up to the\n    //             community to breed, breed, breed!\n\n    // Set in case the core contract is broken and an upgrade is required\n    address public newContractAddress;\n\n    /// @notice Creates the main CryptoKitties smart contract instance.\n    function KittyCore() public {\n        // Starts paused.\n        paused = true;\n\n        // the creator of the contract is the initial CEO\n        ceoAddress = msg.sender;\n\n        // the creator of the contract is also the initial COO\n        cooAddress = msg.sender;\n\n        // start with the mythical kitten 0 - so we don't have generation-0 parent issues\n        _createKitty(0, 0, 0, uint256(-1), address(0));\n    }\n\n    /// @dev Used to mark the smart contract as upgraded, in case there is a serious\n    ///  breaking bug. This method does nothing but keep track of the new contract and\n    ///  emit a message indicating that the new address is set. It's up to clients of this\n    ///  contract to update to the new contract address in that case. (This contract will\n    ///  be paused indefinitely if such an upgrade takes place.)\n    /// @param _v2Address new address\n    function setNewAddress(address _v2Address) external onlyCEO whenPaused {\n        // See README.md for updgrade plan\n        newContractAddress = _v2Address;\n        ContractUpgrade(_v2Address);\n    }\n\n    /// @notice No tipping!\n    /// @dev Reject all Ether from being sent here, unless it's from one of the\n    ///  two auction contracts. (Hopefully, we can prevent user accidents.)\n    function() external payable {\n        require(\n            msg.sender == address(saleAuction) ||\n                msg.sender == address(siringAuction)\n        );\n    }\n\n    /// @notice Returns all the relevant information about a specific kitty.\n    /// @param _id The ID of the kitty of interest.\n    function getKitty(uint256 _id)\n        external\n        view\n        returns (\n            bool isGestating,\n            bool isReady,\n            uint256 cooldownIndex,\n            uint256 nextActionAt,\n            uint256 siringWithId,\n            uint256 birthTime,\n            uint256 matronId,\n            uint256 sireId,\n            uint256 generation,\n            uint256 genes\n        )\n    {\n        Kitty storage kit = kitties[_id];\n\n        // if this variable is 0 then it's not gestating\n        isGestating = (kit.siringWithId != 0);\n        isReady = (kit.cooldownEndBlock <= block.number);\n        cooldownIndex = uint256(kit.cooldownIndex);\n        nextActionAt = uint256(kit.cooldownEndBlock);\n        siringWithId = uint256(kit.siringWithId);\n        birthTime = uint256(kit.birthTime);\n        matronId = uint256(kit.matronId);\n        sireId = uint256(kit.sireId);\n        generation = uint256(kit.generation);\n        genes = kit.genes;\n    }\n\n    /// @dev Override unpause so it requires all external contract addresses\n    ///  to be set before contract can be unpaused. Also, we can't have\n    ///  newContractAddress set either, because then the contract was upgraded.\n    /// @notice This is public rather than external so we can call super.unpause\n    ///  without using an expensive CALL.\n    function unpause() public onlyCEO whenPaused {\n        require(saleAuction != address(0));\n        require(siringAuction != address(0));\n        require(geneScience != address(0));\n        require(newContractAddress == address(0));\n\n        // Actually unpause the contract.\n        super.unpause();\n    }\n\n    // @dev Allows the CFO to capture the balance available to the contract.\n    function withdrawBalance() external onlyCFO {\n        uint256 balance = this.balance;\n        // Subtract all the currently pregnant kittens we have, plus 1 of margin.\n        uint256 subtractFees = (pregnantKitties + 1) * autoBirthFee;\n\n        if (balance > subtractFees) {\n            cfoAddress.send(balance - subtractFees);\n        }\n    }\n}\n",
  "sourcePath": "contracts/KittyCore.sol",
  "abi": [
    {
      "constant": true,
      "inputs": [
        {
          "name": "_interfaceID",
          "type": "bytes4"
        }
      ],
      "name": "supportsInterface",
      "outputs": [
        {
          "name": "",
          "type": "bool"
        }
      ],
      "payable": false,
      "stateMutability": "view",
      "type": "function"
    },
    {
      "constant": true,
      "inputs": [],
      "name": "cfoAddress",
      "outputs": [
        {
          "name": "",
          "type": "address"
        }
      ],
      "payable": false,
      "stateMutability": "view",
      "type": "function"
    },
    {
      "constant": true,
      "inputs": [
        {
          "name": "_tokenId",
          "type": "uint256"
        },
        {
          "name": "_preferredTransport",
          "type": "string"
        }
      ],
      "name": "tokenMetadata",
      "outputs": [
        {
          "name": "infoUrl",
          "type": "string"
        }
      ],
      "payable": false,
      "stateMutability": "view",
      "type": "function"
    },
    {
      "constant": true,
      "inputs": [],
      "name": "name",
      "outputs": [
        {
          "name": "",
          "type": "string"
        }
      ],
      "payable": false,
      "stateMutability": "view",
      "type": "function"
    },
    {
      "constant": false,
      "inputs": [
        {
          "name": "_to",
          "type": "address"
        },
        {
          "name": "_tokenId",
          "type": "uint256"
        }
      ],
      "name": "approve",
      "outputs": [],
      "payable": false,
      "stateMutability": "nonpayable",
      "type": "function"
    },
    {
      "constant": true,
      "inputs": [],
      "name": "ceoAddress",
      "outputs": [
        {
          "name": "",
          "type": "address"
        }
      ],
      "payable": false,
      "stateMutability": "view",
      "type": "function"
    },
    {
      "constant": true,
      "inputs": [],
      "name": "totalSupply",
      "outputs": [
        {
          "name": "",
          "type": "uint256"
        }
      ],
      "payable": false,
      "stateMutability": "view",
      "type": "function"
    },
    {
      "constant": true,
      "inputs": [],
      "name": "pregnantKitties",
      "outputs": [
        {
          "name": "",
          "type": "uint256"
        }
      ],
      "payable": false,
      "stateMutability": "view",
      "type": "function"
    },
    {
      "constant": true,
      "inputs": [
        {
          "name": "_kittyId",
          "type": "uint256"
        }
      ],
      "name": "isPregnant",
      "outputs": [
        {
          "name": "",
          "type": "bool"
        }
      ],
      "payable": false,
      "stateMutability": "view",
      "type": "function"
    },
    {
      "constant": true,
      "inputs": [],
      "name": "siringAuction",
      "outputs": [
        {
          "name": "",
          "type": "address"
        }
      ],
      "payable": false,
      "stateMutability": "view",
      "type": "function"
    },
    {
      "constant": false,
      "inputs": [
        {
          "name": "_from",
          "type": "address"
        },
        {
          "name": "_to",
          "type": "address"
        },
        {
          "name": "_tokenId",
          "type": "uint256"
        }
      ],
      "name": "transferFrom",
      "outputs": [],
      "payable": false,
      "stateMutability": "nonpayable",
      "type": "function"
    },
    {
      "constant": false,
      "inputs": [
        {
          "name": "_address",
          "type": "address"
        }
      ],
      "name": "setGeneScienceAddress",
      "outputs": [],
      "payable": false,
      "stateMutability": "nonpayable",
      "type": "function"
    },
    {
      "constant": false,
      "inputs": [
        {
          "name": "_newCEO",
          "type": "address"
        }
      ],
      "name": "setCEO",
      "outputs": [],
      "payable": false,
      "stateMutability": "nonpayable",
      "type": "function"
    },
    {
      "constant": false,
      "inputs": [
        {
          "name": "_newCOO",
          "type": "address"
        }
      ],
      "name": "setCOO",
      "outputs": [],
      "payable": false,
      "stateMutability": "nonpayable",
      "type": "function"
    },
    {
      "constant": false,
      "inputs": [],
      "name": "unpause",
      "outputs": [],
      "payable": false,
      "stateMutability": "nonpayable",
      "type": "function"
    },
    {
      "constant": true,
      "inputs": [
        {
          "name": "",
          "type": "uint256"
        }
      ],
      "name": "sireAllowedToAddress",
      "outputs": [
        {
          "name": "",
          "type": "address"
        }
      ],
      "payable": false,
      "stateMutability": "view",
      "type": "function"
    },
    {
      "constant": true,
      "inputs": [
        {
          "name": "_matronId",
          "type": "uint256"
        },
        {
          "name": "_sireId",
          "type": "uint256"
        }
      ],
      "name": "canBreedWith",
      "outputs": [
        {
          "name": "",
          "type": "bool"
        }
      ],
      "payable": false,
      "stateMutability": "view",
      "type": "function"
    },
    {
      "constant": true,
      "inputs": [
        {
          "name": "",
          "type": "uint256"
        }
      ],
      "name": "kittyIndexToApproved",
      "outputs": [
        {
          "name": "",
          "type": "address"
        }
      ],
      "payable": false,
      "stateMutability": "view",
      "type": "function"
    },
    {
      "constant": false,
      "inputs": [
        {
          "name": "val",
          "type": "uint256"
        }
      ],
      "name": "setAutoBirthFee",
      "outputs": [],
      "payable": false,
      "stateMutability": "nonpayable",
      "type": "function"
    },
    {
      "constant": false,
      "inputs": [
        {
          "name": "_addr",
          "type": "address"
        },
        {
          "name": "_sireId",
          "type": "uint256"
        }
      ],
      "name": "approveSiring",
      "outputs": [],
      "payable": false,
      "stateMutability": "nonpayable",
      "type": "function"
    },
    {
      "constant": false,
      "inputs": [
        {
          "name": "_newCFO",
          "type": "address"
        }
      ],
      "name": "setCFO",
      "outputs": [],
      "payable": false,
      "stateMutability": "nonpayable",
      "type": "function"
    },
    {
      "constant": false,
      "inputs": [
        {
          "name": "secs",
          "type": "uint256"
        }
      ],
      "name": "setSecondsPerBlock",
      "outputs": [],
      "payable": false,
      "stateMutability": "nonpayable",
      "type": "function"
    },
    {
      "constant": true,
      "inputs": [],
      "name": "paused",
      "outputs": [
        {
          "name": "",
          "type": "bool"
        }
      ],
      "payable": false,
      "stateMutability": "view",
      "type": "function"
    },
    {
      "constant": true,
      "inputs": [
        {
          "name": "_tokenId",
          "type": "uint256"
        }
      ],
      "name": "ownerOf",
      "outputs": [
        {
          "name": "owner",
          "type": "address"
        }
      ],
      "payable": false,
      "stateMutability": "view",
      "type": "function"
    },
    {
      "constant": true,
      "inputs": [
        {
          "name": "_owner",
          "type": "address"
        }
      ],
      "name": "balanceOf",
      "outputs": [
        {
          "name": "count",
          "type": "uint256"
        }
      ],
      "payable": false,
      "stateMutability": "view",
      "type": "function"
    },
    {
      "constant": true,
      "inputs": [],
      "name": "secondsPerBlock",
      "outputs": [
        {
          "name": "",
          "type": "uint256"
        }
      ],
      "payable": false,
      "stateMutability": "view",
      "type": "function"
    },
    {
      "constant": false,
      "inputs": [],
      "name": "pause",
      "outputs": [],
      "payable": false,
      "stateMutability": "nonpayable",
      "type": "function"
    },
    {
      "constant": true,
      "inputs": [
        {
          "name": "_owner",
          "type": "address"
        }
      ],
      "name": "tokensOfOwner",
      "outputs": [
        {
          "name": "ownerTokens",
          "type": "uint256[]"
        }
      ],
      "payable": false,
      "stateMutability": "view",
      "type": "function"
    },
    {
      "constant": false,
      "inputs": [
        {
          "name": "_matronId",
          "type": "uint256"
        }
      ],
      "name": "giveBirth",
      "outputs": [
        {
          "name": "",
          "type": "uint256"
        }
      ],
      "payable": false,
      "stateMutability": "nonpayable",
      "type": "function"
    },
    {
      "constant": true,
      "inputs": [],
      "name": "symbol",
      "outputs": [
        {
          "name": "",
          "type": "string"
        }
      ],
      "payable": false,
      "stateMutability": "view",
      "type": "function"
    },
    {
      "constant": true,
      "inputs": [
        {
          "name": "",
          "type": "uint256"
        }
      ],
      "name": "cooldowns",
      "outputs": [
        {
          "name": "",
          "type": "uint32"
        }
      ],
      "payable": false,
      "stateMutability": "view",
      "type": "function"
    },
    {
      "constant": true,
      "inputs": [
        {
          "name": "",
          "type": "uint256"
        }
      ],
      "name": "kittyIndexToOwner",
      "outputs": [
        {
          "name": "",
          "type": "address"
        }
      ],
      "payable": false,
      "stateMutability": "view",
      "type": "function"
    },
    {
      "constant": false,
      "inputs": [
        {
          "name": "_to",
          "type": "address"
        },
        {
          "name": "_tokenId",
          "type": "uint256"
        }
      ],
      "name": "transfer",
      "outputs": [],
      "payable": false,
      "stateMutability": "nonpayable",
      "type": "function"
    },
    {
      "constant": true,
      "inputs": [],
      "name": "cooAddress",
      "outputs": [
        {
          "name": "",
          "type": "address"
        }
      ],
      "payable": false,
      "stateMutability": "view",
      "type": "function"
    },
    {
      "constant": true,
      "inputs": [],
      "name": "autoBirthFee",
      "outputs": [
        {
          "name": "",
          "type": "uint256"
        }
      ],
      "payable": false,
      "stateMutability": "view",
      "type": "function"
    },
    {
      "constant": true,
      "inputs": [],
      "name": "erc721Metadata",
      "outputs": [
        {
          "name": "",
          "type": "address"
        }
      ],
      "payable": false,
      "stateMutability": "view",
      "type": "function"
    },
    {
      "constant": true,
      "inputs": [
        {
          "name": "_kittyId",
          "type": "uint256"
        }
      ],
      "name": "isReadyToBreed",
      "outputs": [
        {
          "name": "",
          "type": "bool"
        }
      ],
      "payable": false,
      "stateMutability": "view",
      "type": "function"
    },
    {
      "constant": false,
      "inputs": [
        {
          "name": "_contractAddress",
          "type": "address"
        }
      ],
      "name": "setMetadataAddress",
      "outputs": [],
      "payable": false,
      "stateMutability": "nonpayable",
      "type": "function"
    },
    {
      "constant": true,
      "inputs": [],
      "name": "saleAuction",
      "outputs": [
        {
          "name": "",
          "type": "address"
        }
      ],
      "payable": false,
      "stateMutability": "view",
      "type": "function"
    },
    {
      "constant": true,
      "inputs": [],
      "name": "geneScience",
      "outputs": [
        {
          "name": "",
          "type": "address"
        }
      ],
      "payable": false,
      "stateMutability": "view",
      "type": "function"
    },
    {
      "constant": false,
      "inputs": [
        {
          "name": "_matronId",
          "type": "uint256"
        },
        {
          "name": "_sireId",
          "type": "uint256"
        }
      ],
      "name": "breedWithAuto",
      "outputs": [],
      "payable": true,
      "stateMutability": "payable",
      "type": "function"
    },
    {
      "anonymous": false,
      "inputs": [
        {
          "indexed": false,
          "name": "owner",
          "type": "address"
        },
        {
          "indexed": false,
          "name": "matronId",
          "type": "uint256"
        },
        {
          "indexed": false,
          "name": "sireId",
          "type": "uint256"
        },
        {
          "indexed": false,
          "name": "cooldownEndBlock",
          "type": "uint256"
        }
      ],
      "name": "Pregnant",
      "type": "event"
    },
    {
      "anonymous": false,
      "inputs": [
        {
          "indexed": false,
          "name": "from",
          "type": "address"
        },
        {
          "indexed": false,
          "name": "to",
          "type": "address"
        },
        {
          "indexed": false,
          "name": "tokenId",
          "type": "uint256"
        }
      ],
      "name": "Transfer",
      "type": "event"
    },
    {
      "anonymous": false,
      "inputs": [
        {
          "indexed": false,
          "name": "owner",
          "type": "address"
        },
        {
          "indexed": false,
          "name": "approved",
          "type": "address"
        },
        {
          "indexed": false,
          "name": "tokenId",
          "type": "uint256"
        }
      ],
      "name": "Approval",
      "type": "event"
    },
    {
      "anonymous": false,
      "inputs": [
        {
          "indexed": false,
          "name": "owner",
          "type": "address"
        },
        {
          "indexed": false,
          "name": "kittyId",
          "type": "uint256"
        },
        {
          "indexed": false,
          "name": "matronId",
          "type": "uint256"
        },
        {
          "indexed": false,
          "name": "sireId",
          "type": "uint256"
        },
        {
          "indexed": false,
          "name": "genes",
          "type": "uint256"
        }
      ],
      "name": "Birth",
      "type": "event"
    },
    {
      "anonymous": false,
      "inputs": [
        {
          "indexed": false,
          "name": "newContract",
          "type": "address"
        }
      ],
      "name": "ContractUpgrade",
      "type": "event"
    }
  ],
  "bytecode": "0x60806040526000600260146101000a81548160ff0219169083151502179055506101c060405190810160405280603c63ffffffff1663ffffffff168152602001607863ffffffff1663ffffffff16815260200161012c63ffffffff1663ffffffff16815260200161025863ffffffff1663ffffffff16815260200161070863ffffffff1663ffffffff168152602001610e1063ffffffff1663ffffffff168152602001611c2063ffffffff1663ffffffff16815260200161384063ffffffff1663ffffffff16815260200161708063ffffffff1663ffffffff16815260200161e10063ffffffff1663ffffffff1681526020016201518063ffffffff1663ffffffff1681526020016202a30063ffffffff1663ffffffff1681526020016205460063ffffffff1663ffffffff16815260200162093a8063ffffffff1663ffffffff16815250600390600e620001569291906200017b565b50600f60055566071afd498d0000600e553480156200017457600080fd5b506200025b565b82600e600701600890048101928215620002125791602002820160005b83821115620001de57835183826101000a81548163ffffffff021916908363ffffffff160217905550926020019260040160208160030104928301926001030262000198565b8015620002105782816101000a81549063ffffffff0219169055600401602081600301049283019260010302620001de565b505b50905062000221919062000225565b5090565b6200025891905b808211156200025457600081816101000a81549063ffffffff0219169055506001016200022c565b5090565b90565b613b73806200026b6000396000f3006080604052600436106101f9576000357c0100000000000000000000000000000000000000000000000000000000900463ffffffff16806301ffc9a7146101fe5780630519ce79146102625780630560ff44146102b957806306fdde0314610377578063095ea7b3146104075780630a0f81681461045457806318160ddd146104ab578063183a7947146104d65780631940a9361461050157806321717ebf1461054657806323b872dd1461059d57806324e7a38a1461060a57806327d7874c1461064d5780632ba73c15146106905780633f4ba83a146106d357806346116e6f146106ea57806346d22c7014610757578063481af3d3146107a65780634b85fd55146108135780634dfff04f146108405780634e0a33791461088d5780635663896e146108d05780635c975abb146108fd5780636352211e1461092c57806370a08231146109995780637a7d4937146109f05780638456cb5914610a1b5780638462151c14610a3257806388c2a0bf14610aca57806395d89b4114610b0b5780639d6fac6f14610b9b578063a45f4bfc14610be8578063a9059cbb14610c55578063b047fb5014610ca2578063b0c35c0514610cf9578063bc4006f514610d24578063d3e6f49f14610d7b578063e17b25af14610dc0578063e6cbe35114610e03578063f2b47d5214610e5a578063f7d8c88314610eb1575b600080fd5b34801561020a57600080fd5b5061024860048036038101908080357bffffffffffffffffffffffffffffffffffffffffffffffffffffffff19169060200190929190505050610edb565b604051808215151515815260200191505060405180910390f35b34801561026e57600080fd5b506102776111ec565b604051808273ffffffffffffffffffffffffffffffffffffffff1673ffffffffffffffffffffffffffffffffffffffff16815260200191505060405180910390f35b3480156102c557600080fd5b506102fc60048036038101908080359060200190929190803590602001908201803590602001919091929391929390505050611212565b6040518080602001828103825283818151815260200191508051906020019080838360005b8381101561033c578082015181840152602081019050610321565b50505050905090810190601f1680156103695780820380516001836020036101000a031916815260200191505b509250505060405180910390f35b34801561038357600080fd5b5061038c61139b565b6040518080602001828103825283818151815260200191508051906020019080838360005b838110156103cc5780820151818401526020810190506103b1565b50505050905090810190601f1680156103f95780820380516001836020036101000a031916815260200191505b509250505060405180910390f35b34801561041357600080fd5b50610452600480360381019080803573ffffffffffffffffffffffffffffffffffffffff169060200190929190803590602001909291905050506113d4565b005b34801561046057600080fd5b506104696114b2565b604051808273ffffffffffffffffffffffffffffffffffffffff1673ffffffffffffffffffffffffffffffffffffffff16815260200191505060405180910390f35b3480156104b757600080fd5b506104c06114d7565b6040518082815260200191505060405180910390f35b3480156104e257600080fd5b506104eb6114e7565b6040518082815260200191505060405180910390f35b34801561050d57600080fd5b5061052c600480360381019080803590602001909291905050506114ed565b604051808215151515815260200191505060405180910390f35b34801561055257600080fd5b5061055b61153f565b604051808273ffffffffffffffffffffffffffffffffffffffff1673ffffffffffffffffffffffffffffffffffffffff16815260200191505060405180910390f35b3480156105a957600080fd5b50610608600480360381019080803573ffffffffffffffffffffffffffffffffffffffff169060200190929190803573ffffffffffffffffffffffffffffffffffffffff16906020019092919080359060200190929190505050611565565b005b34801561061657600080fd5b5061064b600480360381019080803573ffffffffffffffffffffffffffffffffffffffff169060200190929190505050611632565b005b34801561065957600080fd5b5061068e600480360381019080803573ffffffffffffffffffffffffffffffffffffffff169060200190929190505050611781565b005b34801561069c57600080fd5b506106d1600480360381019080803573ffffffffffffffffffffffffffffffffffffffff16906020019092919050505061185b565b005b3480156106df57600080fd5b506106e8611936565b005b3480156106f657600080fd5b50610715600480360381019080803590602001909291905050506119c9565b604051808273ffffffffffffffffffffffffffffffffffffffff1673ffffffffffffffffffffffffffffffffffffffff16815260200191505060405180910390f35b34801561076357600080fd5b5061078c60048036038101908080359060200190929190803590602001909291905050506119fc565b604051808215151515815260200191505060405180910390f35b3480156107b257600080fd5b506107d160048036038101908080359060200190929190505050611a84565b604051808273ffffffffffffffffffffffffffffffffffffffff1673ffffffffffffffffffffffffffffffffffffffff16815260200191505060405180910390f35b34801561081f57600080fd5b5061083e60048036038101908080359060200190929190505050611ab7565b005b34801561084c57600080fd5b5061088b600480360381019080803573ffffffffffffffffffffffffffffffffffffffff16906020019092919080359060200190929190505050611b1d565b005b34801561089957600080fd5b506108ce600480360381019080803573ffffffffffffffffffffffffffffffffffffffff169060200190929190505050611ba4565b005b3480156108dc57600080fd5b506108fb60048036038101908080359060200190929190505050611c7f565b005b34801561090957600080fd5b50610912611dd3565b604051808215151515815260200191505060405180910390f35b34801561093857600080fd5b5061095760048036038101908080359060200190929190505050611de6565b604051808273ffffffffffffffffffffffffffffffffffffffff1673ffffffffffffffffffffffffffffffffffffffff16815260200191505060405180910390f35b3480156109a557600080fd5b506109da600480360381019080803573ffffffffffffffffffffffffffffffffffffffff169060200190929190505050611e5f565b6040518082815260200191505060405180910390f35b3480156109fc57600080fd5b50610a05611ea8565b6040518082815260200191505060405180910390f35b348015610a2757600080fd5b50610a30611eae565b005b348015610a3e57600080fd5b50610a73600480360381019080803573ffffffffffffffffffffffffffffffffffffffff169060200190929190505050611ff2565b6040518080602001828103825283818151815260200191508051906020019060200280838360005b83811015610ab6578082015181840152602081019050610a9b565b505050509050019250505060405180910390f35b348015610ad657600080fd5b50610af56004803603810190808035906020019092919050505061213f565b6040518082815260200191505060405180910390f35b348015610b1757600080fd5b50610b20612576565b6040518080602001828103825283818151815260200191508051906020019080838360005b83811015610b60578082015181840152602081019050610b45565b50505050905090810190601f168015610b8d5780820380516001836020036101000a031916815260200191505b509250505060405180910390f35b348015610ba757600080fd5b50610bc6600480360381019080803590602001909291905050506125af565b604051808263ffffffff1663ffffffff16815260200191505060405180910390f35b348015610bf457600080fd5b50610c13600480360381019080803590602001909291905050506125de565b604051808273ffffffffffffffffffffffffffffffffffffffff1673ffffffffffffffffffffffffffffffffffffffff16815260200191505060405180910390f35b348015610c6157600080fd5b50610ca0600480360381019080803573ffffffffffffffffffffffffffffffffffffffff16906020019092919080359060200190929190505050612611565b005b348015610cae57600080fd5b50610cb7612782565b604051808273ffffffffffffffffffffffffffffffffffffffff1673ffffffffffffffffffffffffffffffffffffffff16815260200191505060405180910390f35b348015610d0557600080fd5b50610d0e6127a8565b6040518082815260200191505060405180910390f35b348015610d3057600080fd5b50610d396127ae565b604051808273ffffffffffffffffffffffffffffffffffffffff1673ffffffffffffffffffffffffffffffffffffffff16815260200191505060405180910390f35b348015610d8757600080fd5b50610da6600480360381019080803590602001909291905050506127d4565b604051808215151515815260200191505060405180910390f35b348015610dcc57600080fd5b50610e01600480360381019080803573ffffffffffffffffffffffffffffffffffffffff169060200190929190505050612943565b005b348015610e0f57600080fd5b50610e186129e2565b604051808273ffffffffffffffffffffffffffffffffffffffff1673ffffffffffffffffffffffffffffffffffffffff16815260200191505060405180910390f35b348015610e6657600080fd5b50610e6f612a08565b604051808273ffffffffffffffffffffffffffffffffffffffff1673ffffffffffffffffffffffffffffffffffffffff16815260200191505060405180910390f35b610ed96004803603810190808035906020019092919080359060200190929190505050612a2e565b005b600060405180807f737570706f727473496e74657266616365286279746573342900000000000000815250601901905060405180910390207bffffffffffffffffffffffffffffffffffffffffffffffffffffffff1916827bffffffffffffffffffffffffffffffffffffffffffffffffffffffff191614806111e5575060405180807f746f6b656e4d657461646174612875696e743235362c737472696e6729000000815250601d019050604051809103902060405180807f746f6b656e734f664f776e6572286164647265737329000000000000000000008152506016019050604051809103902060405180807f7472616e7366657246726f6d28616464726573732c616464726573732c75696e81526020017f74323536290000000000000000000000000000000000000000000000000000008152506025019050604051809103902060405180807f7472616e7366657228616464726573732c75696e7432353629000000000000008152506019019050604051809103902060405180807f617070726f766528616464726573732c75696e743235362900000000000000008152506018019050604051809103902060405180807f6f776e65724f662875696e7432353629000000000000000000000000000000008152506010019050604051809103902060405180807f62616c616e63654f6628616464726573732900000000000000000000000000008152506012019050604051809103902060405180807f746f74616c537570706c79282900000000000000000000000000000000000000815250600d019050604051809103902060405180807f73796d626f6c28290000000000000000000000000000000000000000000000008152506008019050604051809103902060405180807f6e616d6528290000000000000000000000000000000000000000000000000000815250600601905060405180910390201818181818181818187bffffffffffffffffffffffffffffffffffffffffffffffffffffffff1916827bffffffffffffffffffffffffffffffffffffffffffffffffffffffff1916145b9050919050565b600160009054906101000a900473ffffffffffffffffffffffffffffffffffffffff1681565b606061121c613ab0565b60008073ffffffffffffffffffffffffffffffffffffffff16600d60009054906101000a900473ffffffffffffffffffffffffffffffffffffffff1673ffffffffffffffffffffffffffffffffffffffff161415151561127b57600080fd5b600d60009054906101000a900473ffffffffffffffffffffffffffffffffffffffff1673ffffffffffffffffffffffffffffffffffffffff1663cb4799f28787876040518463ffffffff167c010000000000000000000000000000000000000000000000000000000002815260040180848152602001806020018281038252848482818152602001925080828437820191505094505050505060a060405180830381600087803b15801561132e57600080fd5b505af1158015611342573d6000803e3d6000fd5b505050506040513d601f19601f8201168201806040525060a081101561136757600080fd5b810190809190826080018051906020019092919050505080925081935050506113908282612d6f565b925050509392505050565b6040805190810160405280600d81526020017f43727970746f4b6974746965730000000000000000000000000000000000000081525081565b600260149054906101000a900460ff161515156113f057600080fd5b6113fa3382612dcb565b151561140557600080fd5b61140f8183612e37565b7f8c5be1e5ebec7d5bd14f71427d1e84f3dd0314c0f7b2291e5b200ac8c7c3b925338383604051808473ffffffffffffffffffffffffffffffffffffffff1673ffffffffffffffffffffffffffffffffffffffff1681526020018373ffffffffffffffffffffffffffffffffffffffff1673ffffffffffffffffffffffffffffffffffffffff168152602001828152602001935050505060405180910390a15050565b6000809054906101000a900473ffffffffffffffffffffffffffffffffffffffff1681565b6000600160068054905003905090565b600f5481565b600080821115156114fd57600080fd5b600060068381548110151561150e57fe5b906000526020600020906002020160010160189054906101000a900463ffffffff1663ffffffff1614159050919050565b600c60009054906101000a900473ffffffffffffffffffffffffffffffffffffffff1681565b600260149054906101000a900460ff1615151561158157600080fd5b600073ffffffffffffffffffffffffffffffffffffffff168273ffffffffffffffffffffffffffffffffffffffff16141515156115bd57600080fd5b3073ffffffffffffffffffffffffffffffffffffffff168273ffffffffffffffffffffffffffffffffffffffff16141515156115f857600080fd5b6116023382612e8d565b151561160d57600080fd5b6116178382612dcb565b151561162257600080fd5b61162d838383612ef9565b505050565b60008060009054906101000a900473ffffffffffffffffffffffffffffffffffffffff1673ffffffffffffffffffffffffffffffffffffffff163373ffffffffffffffffffffffffffffffffffffffff1614151561168f57600080fd5b8190508073ffffffffffffffffffffffffffffffffffffffff166354c15b826040518163ffffffff167c0100000000000000000000000000000000000000000000000000000000028152600401602060405180830381600087803b1580156116f657600080fd5b505af115801561170a573d6000803e3d6000fd5b505050506040513d602081101561172057600080fd5b8101908080519060200190929190505050151561173c57600080fd5b80601060006101000a81548173ffffffffffffffffffffffffffffffffffffffff021916908373ffffffffffffffffffffffffffffffffffffffff1602179055505050565b6000809054906101000a900473ffffffffffffffffffffffffffffffffffffffff1673ffffffffffffffffffffffffffffffffffffffff163373ffffffffffffffffffffffffffffffffffffffff161415156117dc57600080fd5b600073ffffffffffffffffffffffffffffffffffffffff168173ffffffffffffffffffffffffffffffffffffffff161415151561181857600080fd5b806000806101000a81548173ffffffffffffffffffffffffffffffffffffffff021916908373ffffffffffffffffffffffffffffffffffffffff16021790555050565b6000809054906101000a900473ffffffffffffffffffffffffffffffffffffffff1673ffffffffffffffffffffffffffffffffffffffff163373ffffffffffffffffffffffffffffffffffffffff161415156118b657600080fd5b600073ffffffffffffffffffffffffffffffffffffffff168173ffffffffffffffffffffffffffffffffffffffff16141515156118f257600080fd5b80600260006101000a81548173ffffffffffffffffffffffffffffffffffffffff021916908373ffffffffffffffffffffffffffffffffffffffff16021790555050565b6000809054906101000a900473ffffffffffffffffffffffffffffffffffffffff1673ffffffffffffffffffffffffffffffffffffffff163373ffffffffffffffffffffffffffffffffffffffff1614151561199157600080fd5b600260149054906101000a900460ff1615156119ac57600080fd5b6000600260146101000a81548160ff021916908315150217905550565b600a6020528060005260406000206000915054906101000a900473ffffffffffffffffffffffffffffffffffffffff1681565b60008060008085111515611a0f57600080fd5b600084111515611a1e57600080fd5b600685815481101515611a2d57fe5b90600052602060002090600202019150600684815481101515611a4c57fe5b90600052602060002090600202019050611a6882868387613131565b8015611a7a5750611a798486613346565b5b9250505092915050565b60096020528060005260406000206000915054906101000a900473ffffffffffffffffffffffffffffffffffffffff1681565b600260009054906101000a900473ffffffffffffffffffffffffffffffffffffffff1673ffffffffffffffffffffffffffffffffffffffff163373ffffffffffffffffffffffffffffffffffffffff16141515611b1357600080fd5b80600e8190555050565b600260149054906101000a900460ff16151515611b3957600080fd5b611b433382612dcb565b1515611b4e57600080fd5b81600a600083815260200190815260200160002060006101000a81548173ffffffffffffffffffffffffffffffffffffffff021916908373ffffffffffffffffffffffffffffffffffffffff1602179055505050565b6000809054906101000a900473ffffffffffffffffffffffffffffffffffffffff1673ffffffffffffffffffffffffffffffffffffffff163373ffffffffffffffffffffffffffffffffffffffff16141515611bff57600080fd5b600073ffffffffffffffffffffffffffffffffffffffff168173ffffffffffffffffffffffffffffffffffffffff1614151515611c3b57600080fd5b80600160006101000a81548173ffffffffffffffffffffffffffffffffffffffff021916908373ffffffffffffffffffffffffffffffffffffffff16021790555050565b600260009054906101000a900473ffffffffffffffffffffffffffffffffffffffff1673ffffffffffffffffffffffffffffffffffffffff163373ffffffffffffffffffffffffffffffffffffffff161480611d2757506000809054906101000a900473ffffffffffffffffffffffffffffffffffffffff1673ffffffffffffffffffffffffffffffffffffffff163373ffffffffffffffffffffffffffffffffffffffff16145b80611d7f5750600160009054906101000a900473ffffffffffffffffffffffffffffffffffffffff1673ffffffffffffffffffffffffffffffffffffffff163373ffffffffffffffffffffffffffffffffffffffff16145b1515611d8a57600080fd5b60036000600e81101515611d9a57fe5b600891828204019190066004029054906101000a900463ffffffff1663ffffffff1681101515611dc957600080fd5b8060058190555050565b600260149054906101000a900460ff1681565b60006007600083815260200190815260200160002060009054906101000a900473ffffffffffffffffffffffffffffffffffffffff169050600073ffffffffffffffffffffffffffffffffffffffff168173ffffffffffffffffffffffffffffffffffffffff1614151515611e5a57600080fd5b919050565b6000600860008373ffffffffffffffffffffffffffffffffffffffff1673ffffffffffffffffffffffffffffffffffffffff168152602001908152602001600020549050919050565b60055481565b600260009054906101000a900473ffffffffffffffffffffffffffffffffffffffff1673ffffffffffffffffffffffffffffffffffffffff163373ffffffffffffffffffffffffffffffffffffffff161480611f5657506000809054906101000a900473ffffffffffffffffffffffffffffffffffffffff1673ffffffffffffffffffffffffffffffffffffffff163373ffffffffffffffffffffffffffffffffffffffff16145b80611fae5750600160009054906101000a900473ffffffffffffffffffffffffffffffffffffffff1673ffffffffffffffffffffffffffffffffffffffff163373ffffffffffffffffffffffffffffffffffffffff16145b1515611fb957600080fd5b600260149054906101000a900460ff16151515611fd557600080fd5b6001600260146101000a81548160ff021916908315150217905550565b606060006060600080600061200687611e5f565b945060008514156120495760006040519080825280602002602001820160405280156120415781602001602082028038833980820191505090505b509550612135565b846040519080825280602002602001820160405280156120785781602001602082028038833980820191505090505b5093506120836114d7565b925060009150600190505b8281111515612131578673ffffffffffffffffffffffffffffffffffffffff166007600083815260200190815260200160002060009054906101000a900473ffffffffffffffffffffffffffffffffffffffff1673ffffffffffffffffffffffffffffffffffffffff1614156121245780848381518110151561210d57fe5b906020019060200201818152505081806001019250505b808060010191505061208e565b8395505b5050505050919050565b600080600080600080600080600260149054906101000a900460ff1615151561216757600080fd5b60068981548110151561217657fe5b9060005260206000209060020201965060008760010160009054906101000a900467ffffffffffffffff1667ffffffffffffffff16141515156121b857600080fd5b6122ee876101006040519081016040529081600082015481526020016001820160009054906101000a900467ffffffffffffffff1667ffffffffffffffff1667ffffffffffffffff1681526020016001820160089054906101000a900467ffffffffffffffff1667ffffffffffffffff1667ffffffffffffffff1681526020016001820160109054906101000a900463ffffffff1663ffffffff1663ffffffff1681526020016001820160149054906101000a900463ffffffff1663ffffffff1663ffffffff1681526020016001820160189054906101000a900463ffffffff1663ffffffff1663ffffffff16815260200160018201601c9054906101000a900461ffff1661ffff1661ffff16815260200160018201601e9054906101000a900461ffff1661ffff1661ffff1681525050613459565b15156122f957600080fd5b8660010160189054906101000a900463ffffffff1663ffffffff16955060068681548110151561232557fe5b9060005260206000209060020201945086600101601e9054906101000a900461ffff16935086600101601e9054906101000a900461ffff1661ffff1685600101601e9054906101000a900461ffff1661ffff1611156123945784600101601e9054906101000a900461ffff1693505b601060009054906101000a900473ffffffffffffffffffffffffffffffffffffffff1673ffffffffffffffffffffffffffffffffffffffff16630d9f5aed8860000154876000015460018b60010160089054906101000a900467ffffffffffffffff16036040518463ffffffff167c0100000000000000000000000000000000000000000000000000000000028152600401808481526020018381526020018267ffffffffffffffff1681526020019350505050602060405180830381600087803b15801561246257600080fd5b505af1158015612476573d6000803e3d6000fd5b505050506040513d602081101561248c57600080fd5b81019080805190602001909291905050509250600760008a815260200190815260200160002060009054906101000a900473ffffffffffffffffffffffffffffffffffffffff169150612503898860010160189054906101000a900463ffffffff1663ffffffff166001870161ffff168686613494565b90508660010160186101000a81549063ffffffff0219169055600f60008154809291906001900391905055503373ffffffffffffffffffffffffffffffffffffffff166108fc600e549081150290604051600060405180830381858888f193505050505080975050505050505050919050565b6040805190810160405280600281526020017f434b00000000000000000000000000000000000000000000000000000000000081525081565b600381600e811015156125be57fe5b60089182820401919006600402915054906101000a900463ffffffff1681565b60076020528060005260406000206000915054906101000a900473ffffffffffffffffffffffffffffffffffffffff1681565b600260149054906101000a900460ff1615151561262d57600080fd5b600073ffffffffffffffffffffffffffffffffffffffff168273ffffffffffffffffffffffffffffffffffffffff161415151561266957600080fd5b3073ffffffffffffffffffffffffffffffffffffffff168273ffffffffffffffffffffffffffffffffffffffff16141515156126a457600080fd5b600b60009054906101000a900473ffffffffffffffffffffffffffffffffffffffff1673ffffffffffffffffffffffffffffffffffffffff168273ffffffffffffffffffffffffffffffffffffffff161415151561270157600080fd5b600c60009054906101000a900473ffffffffffffffffffffffffffffffffffffffff1673ffffffffffffffffffffffffffffffffffffffff168273ffffffffffffffffffffffffffffffffffffffff161415151561275e57600080fd5b6127683382612dcb565b151561277357600080fd5b61277e338383612ef9565b5050565b600260009054906101000a900473ffffffffffffffffffffffffffffffffffffffff1681565b600e5481565b600d60009054906101000a900473ffffffffffffffffffffffffffffffffffffffff1681565b6000806000831115156127e657600080fd5b6006838154811015156127f557fe5b9060005260206000209060020201905061293b816101006040519081016040529081600082015481526020016001820160009054906101000a900467ffffffffffffffff1667ffffffffffffffff1667ffffffffffffffff1681526020016001820160089054906101000a900467ffffffffffffffff1667ffffffffffffffff1667ffffffffffffffff1681526020016001820160109054906101000a900463ffffffff1663ffffffff1663ffffffff1681526020016001820160149054906101000a900463ffffffff1663ffffffff1663ffffffff1681526020016001820160189054906101000a900463ffffffff1663ffffffff1663ffffffff16815260200160018201601c9054906101000a900461ffff1661ffff1661ffff16815260200160018201601e9054906101000a900461ffff1661ffff1661ffff168152505061378b565b915050919050565b6000809054906101000a900473ffffffffffffffffffffffffffffffffffffffff1673ffffffffffffffffffffffffffffffffffffffff163373ffffffffffffffffffffffffffffffffffffffff1614151561299e57600080fd5b80600d60006101000a81548173ffffffffffffffffffffffffffffffffffffffff021916908373ffffffffffffffffffffffffffffffffffffffff16021790555050565b600b60009054906101000a900473ffffffffffffffffffffffffffffffffffffffff1681565b601060009054906101000a900473ffffffffffffffffffffffffffffffffffffffff1681565b600080600260149054906101000a900460ff16151515612a4d57600080fd5b600e543410151515612a5e57600080fd5b612a683385612dcb565b1515612a7357600080fd5b612a7d8385613346565b1515612a8857600080fd5b600684815481101515612a9757fe5b90600052602060002090600202019150612bdd826101006040519081016040529081600082015481526020016001820160009054906101000a900467ffffffffffffffff1667ffffffffffffffff1667ffffffffffffffff1681526020016001820160089054906101000a900467ffffffffffffffff1667ffffffffffffffff1667ffffffffffffffff1681526020016001820160109054906101000a900463ffffffff1663ffffffff1663ffffffff1681526020016001820160149054906101000a900463ffffffff1663ffffffff1663ffffffff1681526020016001820160189054906101000a900463ffffffff1663ffffffff1663ffffffff16815260200160018201601c9054906101000a900461ffff1661ffff1661ffff16815260200160018201601e9054906101000a900461ffff1661ffff1661ffff168152505061378b565b1515612be857600080fd5b600683815481101515612bf757fe5b90600052602060002090600202019050612d3d816101006040519081016040529081600082015481526020016001820160009054906101000a900467ffffffffffffffff1667ffffffffffffffff1667ffffffffffffffff1681526020016001820160089054906101000a900467ffffffffffffffff1667ffffffffffffffff1667ffffffffffffffff1681526020016001820160109054906101000a900463ffffffff1663ffffffff1663ffffffff1681526020016001820160149054906101000a900463ffffffff1663ffffffff1663ffffffff1681526020016001820160189054906101000a900463ffffffff1663ffffffff1663ffffffff16815260200160018201601c9054906101000a900461ffff1661ffff1661ffff16815260200160018201601e9054906101000a900461ffff1661ffff1661ffff168152505061378b565b1515612d4857600080fd5b612d5482858386613131565b1515612d5f57600080fd5b612d6984846137c5565b50505050565b606080600080846040519080825280601f01601f191660200182016040528015612da85781602001602082028038833980820191505090505b509250602083019150859050612dbf82828761398f565b82935050505092915050565b60008273ffffffffffffffffffffffffffffffffffffffff166007600084815260200190815260200160002060009054906101000a900473ffffffffffffffffffffffffffffffffffffffff1673ffffffffffffffffffffffffffffffffffffffff1614905092915050565b806009600084815260200190815260200160002060006101000a81548173ffffffffffffffffffffffffffffffffffffffff021916908373ffffffffffffffffffffffffffffffffffffffff1602179055505050565b60008273ffffffffffffffffffffffffffffffffffffffff166009600084815260200190815260200160002060009054906101000a900473ffffffffffffffffffffffffffffffffffffffff1673ffffffffffffffffffffffffffffffffffffffff1614905092915050565b600860008373ffffffffffffffffffffffffffffffffffffffff1673ffffffffffffffffffffffffffffffffffffffff16815260200190815260200160002060008154809291906001019190505550816007600083815260200190815260200160002060006101000a81548173ffffffffffffffffffffffffffffffffffffffff021916908373ffffffffffffffffffffffffffffffffffffffff160217905550600073ffffffffffffffffffffffffffffffffffffffff168373ffffffffffffffffffffffffffffffffffffffff1614151561308d57600860008473ffffffffffffffffffffffffffffffffffffffff1673ffffffffffffffffffffffffffffffffffffffff1681526020019081526020016000206000815480929190600190039190505550600a600082815260200190815260200160002060006101000a81549073ffffffffffffffffffffffffffffffffffffffff02191690556009600082815260200190815260200160002060006101000a81549073ffffffffffffffffffffffffffffffffffffffff02191690555b7fddf252ad1be2c89b69c2b068fc378daa952ba7f163c4a11628f55a4df523b3ef838383604051808473ffffffffffffffffffffffffffffffffffffffff1673ffffffffffffffffffffffffffffffffffffffff1681526020018373ffffffffffffffffffffffffffffffffffffffff1673ffffffffffffffffffffffffffffffffffffffff168152602001828152602001935050505060405180910390a1505050565b600081841415613144576000905061333e565b818560010160109054906101000a900463ffffffff1663ffffffff1614806131855750818560010160149054906101000a900463ffffffff1663ffffffff16145b15613193576000905061333e565b838360010160109054906101000a900463ffffffff1663ffffffff1614806131d45750838360010160149054906101000a900463ffffffff1663ffffffff16145b156131e2576000905061333e565b60008360010160109054906101000a900463ffffffff1663ffffffff161480613225575060008560010160109054906101000a900463ffffffff1663ffffffff16145b15613233576001905061333e565b8460010160109054906101000a900463ffffffff1663ffffffff168360010160109054906101000a900463ffffffff1663ffffffff1614806132a857508460010160149054906101000a900463ffffffff1663ffffffff168360010160109054906101000a900463ffffffff1663ffffffff16145b156132b6576000905061333e565b8460010160109054906101000a900463ffffffff1663ffffffff168360010160149054906101000a900463ffffffff1663ffffffff16148061332b57508460010160149054906101000a900463ffffffff1663ffffffff168360010160149054906101000a900463ffffffff1663ffffffff16145b15613339576000905061333e565b600190505b949350505050565b60008060006007600085815260200190815260200160002060009054906101000a900473ffffffffffffffffffffffffffffffffffffffff1691506007600086815260200190815260200160002060009054906101000a900473ffffffffffffffffffffffffffffffffffffffff1690508073ffffffffffffffffffffffffffffffffffffffff168273ffffffffffffffffffffffffffffffffffffffff16148061344f57508173ffffffffffffffffffffffffffffffffffffffff16600a600087815260200190815260200160002060009054906101000a900473ffffffffffffffffffffffffffffffffffffffff1673ffffffffffffffffffffffffffffffffffffffff16145b9250505092915050565b6000808260a0015163ffffffff161415801561348d57504367ffffffffffffffff16826040015167ffffffffffffffff1611155b9050919050565b60008061349f613ad3565b60008863ffffffff16891415156134b557600080fd5b8763ffffffff16881415156134c957600080fd5b8661ffff16871415156134db57600080fd5b6002878115156134e757fe5b049250600d8361ffff1611156134fc57600d92505b610100604051908101604052808781526020014267ffffffffffffffff168152602001600067ffffffffffffffff1681526020018a63ffffffff1681526020018963ffffffff168152602001600063ffffffff1681526020018461ffff1681526020018861ffff1681525091506001600683908060018154018082558091505090600182039060005260206000209060020201600090919290919091506000820151816000015560208201518160010160006101000a81548167ffffffffffffffff021916908367ffffffffffffffff16021790555060408201518160010160086101000a81548167ffffffffffffffff021916908367ffffffffffffffff16021790555060608201518160010160106101000a81548163ffffffff021916908363ffffffff16021790555060808201518160010160146101000a81548163ffffffff021916908363ffffffff16021790555060a08201518160010160186101000a81548163ffffffff021916908363ffffffff16021790555060c082015181600101601c6101000a81548161ffff021916908361ffff16021790555060e082015181600101601e6101000a81548161ffff021916908361ffff16021790555050500390508063ffffffff16811415156136d557600080fd5b7f0a5311bd2a6608f08a180df2ee7c5946819a649b204b554bb8e39825b2c50ad58582846060015163ffffffff16856080015163ffffffff168660000151604051808673ffffffffffffffffffffffffffffffffffffffff1673ffffffffffffffffffffffffffffffffffffffff1681526020018581526020018481526020018381526020018281526020019550505050505060405180910390a161377c60008683612ef9565b80935050505095945050505050565b6000808260a0015163ffffffff161480156137be57504367ffffffffffffffff16826040015167ffffffffffffffff1611155b9050919050565b6000806006838154811015156137d757fe5b906000526020600020906002020191506006848154811015156137f657fe5b90600052602060002090600202019050828160010160186101000a81548163ffffffff021916908363ffffffff160217905550613832826139da565b61383b816139da565b600a600085815260200190815260200160002060006101000a81549073ffffffffffffffffffffffffffffffffffffffff0219169055600a600084815260200190815260200160002060006101000a81549073ffffffffffffffffffffffffffffffffffffffff0219169055600f600081548092919060010191905055507f241ea03ca20251805084d27d4440371c34a0b85ff108f6bb5611248f73818b806007600086815260200190815260200160002060009054906101000a900473ffffffffffffffffffffffffffffffffffffffff1685858460010160089054906101000a900467ffffffffffffffff16604051808573ffffffffffffffffffffffffffffffffffffffff1673ffffffffffffffffffffffffffffffffffffffff1681526020018481526020018381526020018267ffffffffffffffff16815260200194505050505060405180910390a150505050565b60005b6020821015156139b75782518452602084019350602083019250602082039150613992565b6001826020036101000a0390508019835116818551168181178652505050505050565b43600554600383600101601c9054906101000a900461ffff1661ffff16600e81101515613a0357fe5b600891828204019190066004029054906101000a900463ffffffff1663ffffffff16811515613a2e57fe5b04018160010160086101000a81548167ffffffffffffffff021916908367ffffffffffffffff160217905550600d81600101601c9054906101000a900461ffff1661ffff161015613aad57600181600101601c8282829054906101000a900461ffff160192506101000a81548161ffff021916908361ffff1602179055505b50565b608060405190810160405280600490602082028038833980820191505090505090565b6101006040519081016040528060008152602001600067ffffffffffffffff168152602001600067ffffffffffffffff168152602001600063ffffffff168152602001600063ffffffff168152602001600063ffffffff168152602001600061ffff168152602001600061ffff16815250905600a165627a7a72305820dd4ae058d0d69bb494dd3c4e1e17077e23a920812b5bac6492b3fa414de4af410029",
  "compiler": {
    "name": "solc",
    "version": "0.4.26+commit.4563c3fc.Emscripten.clang",
    "optimizer": {
      "enabled": false,
      "runs": 200
    },
    "evmVersion": "byzantium"
  }
}