{
  "fileName": "CryptoKittiesBasket.sol",
  "contractName": "CryptoKittiesBasket",
  "source": "// SPDX-License-Identifier: Unlicensed\npragma solidity ^0.6.12;\n\n// Import the IERC20 interface and and SafeMath library\nimport \"@openzeppelin/contracts-ethereum-package/contracts/token/ERC721/ERC721.sol\";\nimport \"@openzeppelin/contracts-ethereum-package/contracts/math/SafeMath.sol\";\n\nabstract contract KittyCore is IERC721 {\n    //function tokensOfOwner(address _owner) external virtual view returns(uint256[] memory ownerTokens);\n    function transfer(address _to, uint256 _tokenId) external virtual;\n}\n\ncontract CryptoKittiesBasket is Initializable {\n    // ckAddress = 0x16baF0dE678E52367adC69fD067E5eDd1D33e3bF;\n    KittyCore _ck;\n\n    function initialize(KittyCore ck) public initializer {\n        _ck = ck;\n    }\n\n    function giveMeKittie(uint256 tokenId) public {\n        _ck.transfer(msg.sender, tokenId);\n    }\n\n    function getKittieBalance() public view returns (uint256) {\n        return _ck.balanceOf(address(this));\n    }\n}\n",
  "sourcePath": "contracts/CryptoKittiesBasket.sol",
  "abi": [
    {
      "inputs": [],
      "name": "getKittieBalance",
      "outputs": [
        {
          "internalType": "uint256",
          "name": "",
          "type": "uint256"
        }
      ],
      "stateMutability": "view",
      "type": "function"
    },
    {
      "inputs": [
        {
          "internalType": "uint256",
          "name": "tokenId",
          "type": "uint256"
        }
      ],
      "name": "giveMeKittie",
      "outputs": [],
      "stateMutability": "nonpayable",
      "type": "function"
    },
    {
      "inputs": [
        {
          "internalType": "contract KittyCore",
          "name": "ck",
          "type": "address"
        }
      ],
      "name": "initialize",
      "outputs": [],
      "stateMutability": "nonpayable",
      "type": "function"
    }
  ],
  "bytecode": "0x608060405234801561001057600080fd5b5061040a806100206000396000f3fe608060405234801561001057600080fd5b50600436106100415760003560e01c80630fadbb1214610046578063c4d66de814610064578063ea58ec61146100a8575b600080fd5b61004e6100d6565b6040518082815260200191505060405180910390f35b6100a66004803603602081101561007a57600080fd5b81019080803573ffffffffffffffffffffffffffffffffffffffff1690602001909291905050506101a1565b005b6100d4600480360360208110156100be57600080fd5b81019080803590602001909291905050506102e1565b005b6000603360009054906101000a900473ffffffffffffffffffffffffffffffffffffffff1673ffffffffffffffffffffffffffffffffffffffff166370a08231306040518263ffffffff1660e01b8152600401808273ffffffffffffffffffffffffffffffffffffffff16815260200191505060206040518083038186803b15801561016157600080fd5b505afa158015610175573d6000803e3d6000fd5b505050506040513d602081101561018b57600080fd5b8101908080519060200190929190505050905090565b600060019054906101000a900460ff16806101c057506101bf61038f565b5b806101d6575060008054906101000a900460ff16155b61022b576040517f08c379a000000000000000000000000000000000000000000000000000000000815260040180806020018281038252602e8152602001806103a7602e913960400191505060405180910390fd5b60008060019054906101000a900460ff16159050801561027b576001600060016101000a81548160ff02191690831515021790555060016000806101000a81548160ff0219169083151502179055505b81603360006101000a81548173ffffffffffffffffffffffffffffffffffffffff021916908373ffffffffffffffffffffffffffffffffffffffff16021790555080156102dd5760008060016101000a81548160ff0219169083151502179055505b5050565b603360009054906101000a900473ffffffffffffffffffffffffffffffffffffffff1673ffffffffffffffffffffffffffffffffffffffff1663a9059cbb33836040518363ffffffff1660e01b8152600401808373ffffffffffffffffffffffffffffffffffffffff16815260200182815260200192505050600060405180830381600087803b15801561037457600080fd5b505af1158015610388573d6000803e3d6000fd5b5050505050565b6000803090506000813b905060008114925050509056fe436f6e747261637420696e7374616e63652068617320616c7265616479206265656e20696e697469616c697a6564a26469706673582212206fcf9976aa853c8cba28ad9cb7b4888a972f9544d4a0317710b86f531312116664736f6c634300060c0033",
  "compiler": {
    "name": "solc",
    "version": "0.6.12+commit.27d51765.Emscripten.clang",
    "optimizer": {
      "enabled": false,
      "runs": 200
    },
    "evmVersion": "petersburg"
  }
}