{
  "fileName": "CryptoKittiesShop.sol",
  "contractName": "CryptoKittiesShop",
  "source": "// SPDX-License-Identifier: Unlicensed\npragma solidity ^0.6.12;\n\n// Import the IERC20 interface and and SafeMath library\nimport \"@openzeppelin/contracts-ethereum-package/contracts/token/ERC20/ERC20.sol\";\nimport \"@openzeppelin/contracts-ethereum-package/contracts/token/ERC721/ERC721.sol\";\nimport \"@openzeppelin/contracts-ethereum-package/contracts/math/SafeMath.sol\";\n\nabstract contract KittyCore is IERC721 {\n    //function tokensOfOwner(address _owner) external virtual view returns(uint256[] memory ownerTokens);\n    function transfer(address _to, uint256 _tokenId) external virtual;\n}\n\ncontract CryptoKittiesShop is Initializable {\n    KittyCore _ck;\n    IERC20 _ourToken;\n\n    function initialize(KittyCore ck, IERC20 ourToken) public initializer {\n        //todo: check wether KittyCore.name() == \"CryptoKitties\")\n        _ck = ck;\n        _ourToken = ourToken;\n    }\n\n    function giveMeKittie(uint256 tokenId) public {\n        uint256 allowance = _ourToken.allowance(msg.sender, address(this));\n        require(allowance >= 1);\n        _ourToken.transferFrom(msg.sender, address(this), 1);\n        _ck.transfer(msg.sender, tokenId);\n    }\n\n    function getKittieBalance() public view returns (uint256) {\n        return _ck.balanceOf(address(this));\n    }\n\n    function getOurTokenBalance() public view returns (uint256) {\n        return _ourToken.balanceOf(address(this));\n    }\n}\n",
  "sourcePath": "contracts/CryptoKittiesShop.sol",
  "abi": [
    {
      "inputs": [],
      "name": "getKittieBalance",
      "outputs": [
        {
          "internalType": "uint256",
          "name": "",
          "type": "uint256"
        }
      ],
      "stateMutability": "view",
      "type": "function"
    },
    {
      "inputs": [],
      "name": "getOurTokenBalance",
      "outputs": [
        {
          "internalType": "uint256",
          "name": "",
          "type": "uint256"
        }
      ],
      "stateMutability": "view",
      "type": "function"
    },
    {
      "inputs": [
        {
          "internalType": "uint256",
          "name": "tokenId",
          "type": "uint256"
        }
      ],
      "name": "giveMeKittie",
      "outputs": [],
      "stateMutability": "nonpayable",
      "type": "function"
    },
    {
      "inputs": [
        {
          "internalType": "contract KittyCore",
          "name": "ck",
          "type": "address"
        },
        {
          "internalType": "contract IERC20",
          "name": "ourToken",
          "type": "address"
        }
      ],
      "name": "initialize",
      "outputs": [],
      "stateMutability": "nonpayable",
      "type": "function"
    }
  ],
  "bytecode": "0x608060405234801561001057600080fd5b50610743806100206000396000f3fe608060405234801561001057600080fd5b506004361061004c5760003560e01c80630fadbb1214610051578063485cc9551461006f57806381ad767a146100d3578063ea58ec61146100f1575b600080fd5b61005961011f565b6040518082815260200191505060405180910390f35b6100d16004803603604081101561008557600080fd5b81019080803573ffffffffffffffffffffffffffffffffffffffff169060200190929190803573ffffffffffffffffffffffffffffffffffffffff1690602001909291905050506101ea565b005b6100db61036c565b6040518082815260200191505060405180910390f35b61011d6004803603602081101561010757600080fd5b8101908080359060200190929190505050610437565b005b6000603360009054906101000a900473ffffffffffffffffffffffffffffffffffffffff1673ffffffffffffffffffffffffffffffffffffffff166370a08231306040518263ffffffff1660e01b8152600401808273ffffffffffffffffffffffffffffffffffffffff16815260200191505060206040518083038186803b1580156101aa57600080fd5b505afa1580156101be573d6000803e3d6000fd5b505050506040513d60208110156101d457600080fd5b8101908080519060200190929190505050905090565b600060019054906101000a900460ff168061020957506102086106c8565b5b8061021f575060008054906101000a900460ff16155b610274576040517f08c379a000000000000000000000000000000000000000000000000000000000815260040180806020018281038252602e8152602001806106e0602e913960400191505060405180910390fd5b60008060019054906101000a900460ff1615905080156102c4576001600060016101000a81548160ff02191690831515021790555060016000806101000a81548160ff0219169083151502179055505b82603360006101000a81548173ffffffffffffffffffffffffffffffffffffffff021916908373ffffffffffffffffffffffffffffffffffffffff16021790555081603460006101000a81548173ffffffffffffffffffffffffffffffffffffffff021916908373ffffffffffffffffffffffffffffffffffffffff16021790555080156103675760008060016101000a81548160ff0219169083151502179055505b505050565b6000603460009054906101000a900473ffffffffffffffffffffffffffffffffffffffff1673ffffffffffffffffffffffffffffffffffffffff166370a08231306040518263ffffffff1660e01b8152600401808273ffffffffffffffffffffffffffffffffffffffff16815260200191505060206040518083038186803b1580156103f757600080fd5b505afa15801561040b573d6000803e3d6000fd5b505050506040513d602081101561042157600080fd5b8101908080519060200190929190505050905090565b6000603460009054906101000a900473ffffffffffffffffffffffffffffffffffffffff1673ffffffffffffffffffffffffffffffffffffffff1663dd62ed3e33306040518363ffffffff1660e01b8152600401808373ffffffffffffffffffffffffffffffffffffffff1681526020018273ffffffffffffffffffffffffffffffffffffffff1681526020019250505060206040518083038186803b1580156104e057600080fd5b505afa1580156104f4573d6000803e3d6000fd5b505050506040513d602081101561050a57600080fd5b81019080805190602001909291905050509050600181101561052b57600080fd5b603460009054906101000a900473ffffffffffffffffffffffffffffffffffffffff1673ffffffffffffffffffffffffffffffffffffffff166323b872dd333060016040518463ffffffff1660e01b8152600401808473ffffffffffffffffffffffffffffffffffffffff1681526020018373ffffffffffffffffffffffffffffffffffffffff1681526020018281526020019350505050602060405180830381600087803b1580156105dd57600080fd5b505af11580156105f1573d6000803e3d6000fd5b505050506040513d602081101561060757600080fd5b810190808051906020019092919050505050603360009054906101000a900473ffffffffffffffffffffffffffffffffffffffff1673ffffffffffffffffffffffffffffffffffffffff1663a9059cbb33846040518363ffffffff1660e01b8152600401808373ffffffffffffffffffffffffffffffffffffffff16815260200182815260200192505050600060405180830381600087803b1580156106ac57600080fd5b505af11580156106c0573d6000803e3d6000fd5b505050505050565b6000803090506000813b905060008114925050509056fe436f6e747261637420696e7374616e63652068617320616c7265616479206265656e20696e697469616c697a6564a264697066735822122041518a21c4ad7fb8db027f166deb147b73091d5cba109b5f7e5108b97b9ff70864736f6c634300060c0033",
  "compiler": {
    "name": "solc",
    "version": "0.6.12+commit.27d51765.Emscripten.clang",
    "optimizer": {
      "enabled": false,
      "runs": 200
    },
    "evmVersion": "petersburg"
  }
}